{
	"data": {
		"bytecode": {
			"linkReferences": {},
			"object": "608060405260018015610010575060005b80610019575060015b6000806101000a81548160ff021916908315150217905550600080156100465750600180610045575060005b5b600060016101000a81548160ff02191690831515021790555060011580610076575060008015610074575060015b155b600060026101000a81548160ff02191690831515021790555034801561009b57600080fd5b5061012e806100ab6000396000f3fe6080604052348015600f57600080fd5b5060043610603c5760003560e01c806326121ff01460415780638a054ac214605b578063ffae15ba146075575b600080fd5b6047608f565b6040516052919060d3565b60405180910390f35b606160a2565b604051606c919060d3565b60405180910390f35b607b60b3565b6040516086919060d3565b60405180910390f35b600060029054906101000a900460ff1681565b60008054906101000a900460ff1681565b600060019054906101000a900460ff1681565b60cd8160ec565b82525050565b600060208201905060e6600083018460c6565b92915050565b6000811515905091905056fea264697066735822122005114d5e4f0ff8e6a80c39ac8696bb0d6ba7bcf5b2ffbbdd3fd1d7bbd340eda464736f6c63430008070033",
			"opcodes": "PUSH1 0x80 PUSH1 0x40 MSTORE PUSH1 0x1 DUP1 ISZERO PUSH2 0x10 JUMPI POP PUSH1 0x0 JUMPDEST DUP1 PUSH2 0x19 JUMPI POP PUSH1 0x1 JUMPDEST PUSH1 0x0 DUP1 PUSH2 0x100 EXP DUP2 SLOAD DUP2 PUSH1 0xFF MUL NOT AND SWAP1 DUP4 ISZERO ISZERO MUL OR SWAP1 SSTORE POP PUSH1 0x0 DUP1 ISZERO PUSH2 0x46 JUMPI POP PUSH1 0x1 DUP1 PUSH2 0x45 JUMPI POP PUSH1 0x0 JUMPDEST JUMPDEST PUSH1 0x0 PUSH1 0x1 PUSH2 0x100 EXP DUP2 SLOAD DUP2 PUSH1 0xFF MUL NOT AND SWAP1 DUP4 ISZERO ISZERO MUL OR SWAP1 SSTORE POP PUSH1 0x1 ISZERO DUP1 PUSH2 0x76 JUMPI POP PUSH1 0x0 DUP1 ISZERO PUSH2 0x74 JUMPI POP PUSH1 0x1 JUMPDEST ISZERO JUMPDEST PUSH1 0x0 PUSH1 0x2 PUSH2 0x100 EXP DUP2 SLOAD DUP2 PUSH1 0xFF MUL NOT AND SWAP1 DUP4 ISZERO ISZERO MUL OR SWAP1 SSTORE POP CALLVALUE DUP1 ISZERO PUSH2 0x9B JUMPI PUSH1 0x0 DUP1 REVERT JUMPDEST POP PUSH2 0x12E DUP1 PUSH2 0xAB PUSH1 0x0 CODECOPY PUSH1 0x0 RETURN INVALID PUSH1 0x80 PUSH1 0x40 MSTORE CALLVALUE DUP1 ISZERO PUSH1 0xF JUMPI PUSH1 0x0 DUP1 REVERT JUMPDEST POP PUSH1 0x4 CALLDATASIZE LT PUSH1 0x3C JUMPI PUSH1 0x0 CALLDATALOAD PUSH1 0xE0 SHR DUP1 PUSH4 0x26121FF0 EQ PUSH1 0x41 JUMPI DUP1 PUSH4 0x8A054AC2 EQ PUSH1 0x5B JUMPI DUP1 PUSH4 0xFFAE15BA EQ PUSH1 0x75 JUMPI JUMPDEST PUSH1 0x0 DUP1 REVERT JUMPDEST PUSH1 0x47 PUSH1 0x8F JUMP JUMPDEST PUSH1 0x40 MLOAD PUSH1 0x52 SWAP2 SWAP1 PUSH1 0xD3 JUMP JUMPDEST PUSH1 0x40 MLOAD DUP1 SWAP2 SUB SWAP1 RETURN JUMPDEST PUSH1 0x61 PUSH1 0xA2 JUMP JUMPDEST PUSH1 0x40 MLOAD PUSH1 0x6C SWAP2 SWAP1 PUSH1 0xD3 JUMP JUMPDEST PUSH1 0x40 MLOAD DUP1 SWAP2 SUB SWAP1 RETURN JUMPDEST PUSH1 0x7B PUSH1 0xB3 JUMP JUMPDEST PUSH1 0x40 MLOAD PUSH1 0x86 SWAP2 SWAP1 PUSH1 0xD3 JUMP JUMPDEST PUSH1 0x40 MLOAD DUP1 SWAP2 SUB SWAP1 RETURN JUMPDEST PUSH1 0x0 PUSH1 0x2 SWAP1 SLOAD SWAP1 PUSH2 0x100 EXP SWAP1 DIV PUSH1 0xFF AND DUP2 JUMP JUMPDEST PUSH1 0x0 DUP1 SLOAD SWAP1 PUSH2 0x100 EXP SWAP1 DIV PUSH1 0xFF AND DUP2 JUMP JUMPDEST PUSH1 0x0 PUSH1 0x1 SWAP1 SLOAD SWAP1 PUSH2 0x100 EXP SWAP1 DIV PUSH1 0xFF AND DUP2 JUMP JUMPDEST PUSH1 0xCD DUP2 PUSH1 0xEC JUMP JUMPDEST DUP3 MSTORE POP POP JUMP JUMPDEST PUSH1 0x0 PUSH1 0x20 DUP3 ADD SWAP1 POP PUSH1 0xE6 PUSH1 0x0 DUP4 ADD DUP5 PUSH1 0xC6 JUMP JUMPDEST SWAP3 SWAP2 POP POP JUMP JUMPDEST PUSH1 0x0 DUP2 ISZERO ISZERO SWAP1 POP SWAP2 SWAP1 POP JUMP INVALID LOG2 PUSH5 0x6970667358 0x22 SLT KECCAK256 SDIV GT 0x4D 0x5E 0x4F 0xF 0xF8 0xE6 0xA8 0xC CODECOPY 0xAC DUP7 SWAP7 0xBB 0xD PUSH12 0xA7BCF5B2FFBBDD3FD1D7BBD3 BLOCKHASH 0xED LOG4 PUSH5 0x736F6C6343 STOP ADDMOD SMOD STOP CALLER "
		},
		"gasEstimates": {
			"creation": {
				"codeDepositCost": "60400",
				"executionCost": "73127",
				"totalCost": "133527"
			},
			"external": {
				"d()": "2468",
				"e()": "2543",
				"f()": "2499"
			}
		},
		"methodIdentifiers": {
			"d()": "8a054ac2",
			"e()": "ffae15ba",
			"f()": "26121ff0"
		}
	},
	"abi": [
		{
			"inputs": [],
			"name": "d",
			"outputs": [
				{
					"internalType": "bool",
					"name": "",
					"type": "bool"
				}
			],
			"stateMutability": "view",
			"type": "function"
		},
		{
			"inputs": [],
			"name": "e",
			"outputs": [
				{
					"internalType": "bool",
					"name": "",
					"type": "bool"
				}
			],
			"stateMutability": "view",
			"type": "function"
		},
		{
			"inputs": [],
			"name": "f",
			"outputs": [
				{
					"internalType": "bool",
					"name": "",
					"type": "bool"
				}
			],
			"stateMutability": "view",
			"type": "function"
		}
	]
}