{
	"data": {
		"bytecode": {
			"linkReferences": {},
			"object": "608060405260018061000f575060015b80610018575060005b6000806101000a81548160ff0219169083151502179055506001801561003c575060015b8015610046575060005b600060016101000a81548160ff021916908315150217905550600180610074575060018015610073575060005b5b600060026101000a81548160ff02191690831515021790555034801561009957600080fd5b5061012e806100a96000396000f3fe6080604052348015600f57600080fd5b5060043610603c5760003560e01c80630dbe671f1460415780634df7e3d014605b578063c3da42b8146075575b600080fd5b6047608f565b6040516052919060d3565b60405180910390f35b606160a0565b604051606c919060d3565b60405180910390f35b607b60b3565b6040516086919060d3565b60405180910390f35b60008054906101000a900460ff1681565b600060019054906101000a900460ff1681565b600060029054906101000a900460ff1681565b60cd8160ec565b82525050565b600060208201905060e6600083018460c6565b92915050565b6000811515905091905056fea2646970667358221220b8b22ad63b25604c518ec90059b730f7e38409cabc03aa49d9cbd87151c560dc64736f6c63430008070033",
			"opcodes": "PUSH1 0x80 PUSH1 0x40 MSTORE PUSH1 0x1 DUP1 PUSH2 0xF JUMPI POP PUSH1 0x1 JUMPDEST DUP1 PUSH2 0x18 JUMPI POP PUSH1 0x0 JUMPDEST PUSH1 0x0 DUP1 PUSH2 0x100 EXP DUP2 SLOAD DUP2 PUSH1 0xFF MUL NOT AND SWAP1 DUP4 ISZERO ISZERO MUL OR SWAP1 SSTORE POP PUSH1 0x1 DUP1 ISZERO PUSH2 0x3C JUMPI POP PUSH1 0x1 JUMPDEST DUP1 ISZERO PUSH2 0x46 JUMPI POP PUSH1 0x0 JUMPDEST PUSH1 0x0 PUSH1 0x1 PUSH2 0x100 EXP DUP2 SLOAD DUP2 PUSH1 0xFF MUL NOT AND SWAP1 DUP4 ISZERO ISZERO MUL OR SWAP1 SSTORE POP PUSH1 0x1 DUP1 PUSH2 0x74 JUMPI POP PUSH1 0x1 DUP1 ISZERO PUSH2 0x73 JUMPI POP PUSH1 0x0 JUMPDEST JUMPDEST PUSH1 0x0 PUSH1 0x2 PUSH2 0x100 EXP DUP2 SLOAD DUP2 PUSH1 0xFF MUL NOT AND SWAP1 DUP4 ISZERO ISZERO MUL OR SWAP1 SSTORE POP CALLVALUE DUP1 ISZERO PUSH2 0x99 JUMPI PUSH1 0x0 DUP1 REVERT JUMPDEST POP PUSH2 0x12E DUP1 PUSH2 0xA9 PUSH1 0x0 CODECOPY PUSH1 0x0 RETURN INVALID PUSH1 0x80 PUSH1 0x40 MSTORE CALLVALUE DUP1 ISZERO PUSH1 0xF JUMPI PUSH1 0x0 DUP1 REVERT JUMPDEST POP PUSH1 0x4 CALLDATASIZE LT PUSH1 0x3C JUMPI PUSH1 0x0 CALLDATALOAD PUSH1 0xE0 SHR DUP1 PUSH4 0xDBE671F EQ PUSH1 0x41 JUMPI DUP1 PUSH4 0x4DF7E3D0 EQ PUSH1 0x5B JUMPI DUP1 PUSH4 0xC3DA42B8 EQ PUSH1 0x75 JUMPI JUMPDEST PUSH1 0x0 DUP1 REVERT JUMPDEST PUSH1 0x47 PUSH1 0x8F JUMP JUMPDEST PUSH1 0x40 MLOAD PUSH1 0x52 SWAP2 SWAP1 PUSH1 0xD3 JUMP JUMPDEST PUSH1 0x40 MLOAD DUP1 SWAP2 SUB SWAP1 RETURN JUMPDEST PUSH1 0x61 PUSH1 0xA0 JUMP JUMPDEST PUSH1 0x40 MLOAD PUSH1 0x6C SWAP2 SWAP1 PUSH1 0xD3 JUMP JUMPDEST PUSH1 0x40 MLOAD DUP1 SWAP2 SUB SWAP1 RETURN JUMPDEST PUSH1 0x7B PUSH1 0xB3 JUMP JUMPDEST PUSH1 0x40 MLOAD PUSH1 0x86 SWAP2 SWAP1 PUSH1 0xD3 JUMP JUMPDEST PUSH1 0x40 MLOAD DUP1 SWAP2 SUB SWAP1 RETURN JUMPDEST PUSH1 0x0 DUP1 SLOAD SWAP1 PUSH2 0x100 EXP SWAP1 DIV PUSH1 0xFF AND DUP2 JUMP JUMPDEST PUSH1 0x0 PUSH1 0x1 SWAP1 SLOAD SWAP1 PUSH2 0x100 EXP SWAP1 DIV PUSH1 0xFF AND DUP2 JUMP JUMPDEST PUSH1 0x0 PUSH1 0x2 SWAP1 SLOAD SWAP1 PUSH2 0x100 EXP SWAP1 DIV PUSH1 0xFF AND DUP2 JUMP JUMPDEST PUSH1 0xCD DUP2 PUSH1 0xEC JUMP JUMPDEST DUP3 MSTORE POP POP JUMP JUMPDEST PUSH1 0x0 PUSH1 0x20 DUP3 ADD SWAP1 POP PUSH1 0xE6 PUSH1 0x0 DUP4 ADD DUP5 PUSH1 0xC6 JUMP JUMPDEST SWAP3 SWAP2 POP POP JUMP JUMPDEST PUSH1 0x0 DUP2 ISZERO ISZERO SWAP1 POP SWAP2 SWAP1 POP JUMP INVALID LOG2 PUSH5 0x6970667358 0x22 SLT KECCAK256 0xB8 0xB2 0x2A 0xD6 EXTCODESIZE 0x25 PUSH1 0x4C MLOAD DUP15 0xC9 STOP MSIZE 0xB7 ADDRESS 0xF7 0xE3 DUP5 MULMOD 0xCA 0xBC SUB 0xAA 0x49 0xD9 0xCB 0xD8 PUSH18 0x51C560DC64736F6C63430008070033000000 "
		},
		"gasEstimates": {
			"creation": {
				"codeDepositCost": "60400",
				"executionCost": "73113",
				"totalCost": "133513"
			},
			"external": {
				"a()": "2446",
				"b()": "2521",
				"c()": "2543"
			}
		},
		"methodIdentifiers": {
			"a()": "0dbe671f",
			"b()": "4df7e3d0",
			"c()": "c3da42b8"
		}
	},
	"abi": [
		{
			"inputs": [],
			"name": "a",
			"outputs": [
				{
					"internalType": "bool",
					"name": "",
					"type": "bool"
				}
			],
			"stateMutability": "view",
			"type": "function"
		},
		{
			"inputs": [],
			"name": "b",
			"outputs": [
				{
					"internalType": "bool",
					"name": "",
					"type": "bool"
				}
			],
			"stateMutability": "view",
			"type": "function"
		},
		{
			"inputs": [],
			"name": "c",
			"outputs": [
				{
					"internalType": "bool",
					"name": "",
					"type": "bool"
				}
			],
			"stateMutability": "view",
			"type": "function"
		}
	]
}