{
	"ch4/Ex4_4.sol": {
		"Ex4_4": {
			"abi": [
				{
					"inputs": [
						{
							"internalType": "uint256",
							"name": "a",
							"type": "uint256"
						}
					],
					"name": "fun1",
					"outputs": [
						{
							"internalType": "uint256",
							"name": "",
							"type": "uint256"
						}
					],
					"stateMutability": "pure",
					"type": "function"
				}
			],
			"devdoc": {
				"kind": "dev",
				"methods": {},
				"version": 1
			},
			"evm": {
				"assembly": "    /* \"ch4/Ex4_4.sol\":75:266  contract Ex4_4{... */\n  mstore(0x40, 0x80)\n  callvalue\n  dup1\n  iszero\n  tag_1\n  jumpi\n  0x00\n  dup1\n  revert\ntag_1:\n  pop\n  dataSize(sub_0)\n  dup1\n  dataOffset(sub_0)\n  0x00\n  codecopy\n  0x00\n  return\nstop\n\nsub_0: assembly {\n        /* \"ch4/Ex4_4.sol\":75:266  contract Ex4_4{... */\n      mstore(0x40, 0x80)\n      callvalue\n      dup1\n      iszero\n      tag_1\n      jumpi\n      0x00\n      dup1\n      revert\n    tag_1:\n      pop\n      jumpi(tag_2, lt(calldatasize, 0x04))\n      shr(0xe0, calldataload(0x00))\n      dup1\n      0xacd9fd65\n      eq\n      tag_3\n      jumpi\n    tag_2:\n      0x00\n      dup1\n      revert\n        /* \"ch4/Ex4_4.sol\":96:263  function fun1(uint a) public pure returns(uint){... */\n    tag_3:\n      tag_4\n      0x04\n      dup1\n      calldatasize\n      sub\n      dup2\n      add\n      swap1\n      tag_5\n      swap2\n      swap1\n      tag_6\n      jump\t// in\n    tag_5:\n      tag_7\n      jump\t// in\n    tag_4:\n      mload(0x40)\n      tag_8\n      swap2\n      swap1\n      tag_9\n      jump\t// in\n    tag_8:\n      mload(0x40)\n      dup1\n      swap2\n      sub\n      swap1\n      return\n    tag_7:\n        /* \"ch4/Ex4_4.sol\":138:142  uint */\n      0x00\n        /* \"ch4/Ex4_4.sol\":158:160  10 */\n      0x0a\n        /* \"ch4/Ex4_4.sol\":155:156  a */\n      dup3\n        /* \"ch4/Ex4_4.sol\":155:160  a>=10 */\n      lt\n        /* \"ch4/Ex4_4.sol\":152:240  if(a>=10){... */\n      tag_11\n      jumpi\n        /* \"ch4/Ex4_4.sol\":176:177  9 */\n      0x09\n        /* \"ch4/Ex4_4.sol\":174:177  a=9 */\n      swap2\n      pop\n        /* \"ch4/Ex4_4.sol\":152:240  if(a>=10){... */\n      jump(tag_12)\n    tag_11:\n        /* \"ch4/Ex4_4.sol\":197:198  4 */\n      0x04\n        /* \"ch4/Ex4_4.sol\":195:196  a */\n      dup3\n        /* \"ch4/Ex4_4.sol\":195:198  a>4 */\n      gt\n        /* \"ch4/Ex4_4.sol\":195:205  a>4 && a<6 */\n      dup1\n      iszero\n      tag_13\n      jumpi\n      pop\n        /* \"ch4/Ex4_4.sol\":204:205  6 */\n      0x06\n        /* \"ch4/Ex4_4.sol\":202:203  a */\n      dup3\n        /* \"ch4/Ex4_4.sol\":202:205  a<6 */\n      lt\n        /* \"ch4/Ex4_4.sol\":195:205  a>4 && a<6 */\n    tag_13:\n        /* \"ch4/Ex4_4.sol\":192:240  if(a>4 && a<6){... */\n      iszero\n      tag_14\n      jumpi\n        /* \"ch4/Ex4_4.sol\":221:222  5 */\n      0x05\n        /* \"ch4/Ex4_4.sol\":219:222  a=5 */\n      swap2\n      pop\n        /* \"ch4/Ex4_4.sol\":192:240  if(a>4 && a<6){... */\n      jump(tag_15)\n    tag_14:\n        /* \"ch4/Ex4_4.sol\":239:240  3 */\n      0x03\n        /* \"ch4/Ex4_4.sol\":237:240  a=3 */\n      swap2\n      pop\n        /* \"ch4/Ex4_4.sol\":192:240  if(a>4 && a<6){... */\n    tag_15:\n        /* \"ch4/Ex4_4.sol\":152:240  if(a>=10){... */\n    tag_12:\n        /* \"ch4/Ex4_4.sol\":256:257  a */\n      dup2\n        /* \"ch4/Ex4_4.sol\":249:257  return a */\n      swap1\n      pop\n        /* \"ch4/Ex4_4.sol\":96:263  function fun1(uint a) public pure returns(uint){... */\n      swap2\n      swap1\n      pop\n      jump\t// out\n        /* \"#utility.yul\":88:205   */\n    tag_17:\n        /* \"#utility.yul\":197:198   */\n      0x00\n        /* \"#utility.yul\":194:195   */\n      dup1\n        /* \"#utility.yul\":187:199   */\n      revert\n        /* \"#utility.yul\":334:411   */\n    tag_19:\n        /* \"#utility.yul\":371:378   */\n      0x00\n        /* \"#utility.yul\":400:405   */\n      dup2\n        /* \"#utility.yul\":389:405   */\n      swap1\n      pop\n        /* \"#utility.yul\":334:411   */\n      swap2\n      swap1\n      pop\n      jump\t// out\n        /* \"#utility.yul\":417:539   */\n    tag_20:\n        /* \"#utility.yul\":490:514   */\n      tag_29\n        /* \"#utility.yul\":508:513   */\n      dup2\n        /* \"#utility.yul\":490:514   */\n      tag_19\n      jump\t// in\n    tag_29:\n        /* \"#utility.yul\":483:488   */\n      dup2\n        /* \"#utility.yul\":480:515   */\n      eq\n        /* \"#utility.yul\":470:533   */\n      tag_30\n      jumpi\n        /* \"#utility.yul\":529:530   */\n      0x00\n        /* \"#utility.yul\":526:527   */\n      dup1\n        /* \"#utility.yul\":519:531   */\n      revert\n        /* \"#utility.yul\":470:533   */\n    tag_30:\n        /* \"#utility.yul\":417:539   */\n      pop\n      jump\t// out\n        /* \"#utility.yul\":545:684   */\n    tag_21:\n        /* \"#utility.yul\":591:596   */\n      0x00\n        /* \"#utility.yul\":629:635   */\n      dup2\n        /* \"#utility.yul\":616:636   */\n      calldataload\n        /* \"#utility.yul\":607:636   */\n      swap1\n      pop\n        /* \"#utility.yul\":645:678   */\n      tag_32\n        /* \"#utility.yul\":672:677   */\n      dup2\n        /* \"#utility.yul\":645:678   */\n      tag_20\n      jump\t// in\n    tag_32:\n        /* \"#utility.yul\":545:684   */\n      swap3\n      swap2\n      pop\n      pop\n      jump\t// out\n        /* \"#utility.yul\":690:1019   */\n    tag_6:\n        /* \"#utility.yul\":749:755   */\n      0x00\n        /* \"#utility.yul\":798:800   */\n      0x20\n        /* \"#utility.yul\":786:795   */\n      dup3\n        /* \"#utility.yul\":777:784   */\n      dup5\n        /* \"#utility.yul\":773:796   */\n      sub\n        /* \"#utility.yul\":769:801   */\n      slt\n        /* \"#utility.yul\":766:885   */\n      iszero\n      tag_34\n      jumpi\n        /* \"#utility.yul\":804:883   */\n      tag_35\n      tag_17\n      jump\t// in\n    tag_35:\n        /* \"#utility.yul\":766:885   */\n    tag_34:\n        /* \"#utility.yul\":924:925   */\n      0x00\n        /* \"#utility.yul\":949:1002   */\n      tag_36\n        /* \"#utility.yul\":994:1001   */\n      dup5\n        /* \"#utility.yul\":985:991   */\n      dup3\n        /* \"#utility.yul\":974:983   */\n      dup6\n        /* \"#utility.yul\":970:992   */\n      add\n        /* \"#utility.yul\":949:1002   */\n      tag_21\n      jump\t// in\n    tag_36:\n        /* \"#utility.yul\":939:1002   */\n      swap2\n      pop\n        /* \"#utility.yul\":895:1012   */\n      pop\n        /* \"#utility.yul\":690:1019   */\n      swap3\n      swap2\n      pop\n      pop\n      jump\t// out\n        /* \"#utility.yul\":1025:1143   */\n    tag_22:\n        /* \"#utility.yul\":1112:1136   */\n      tag_38\n        /* \"#utility.yul\":1130:1135   */\n      dup2\n        /* \"#utility.yul\":1112:1136   */\n      tag_19\n      jump\t// in\n    tag_38:\n        /* \"#utility.yul\":1107:1110   */\n      dup3\n        /* \"#utility.yul\":1100:1137   */\n      mstore\n        /* \"#utility.yul\":1025:1143   */\n      pop\n      pop\n      jump\t// out\n        /* \"#utility.yul\":1149:1371   */\n    tag_9:\n        /* \"#utility.yul\":1242:1246   */\n      0x00\n        /* \"#utility.yul\":1280:1282   */\n      0x20\n        /* \"#utility.yul\":1269:1278   */\n      dup3\n        /* \"#utility.yul\":1265:1283   */\n      add\n        /* \"#utility.yul\":1257:1283   */\n      swap1\n      pop\n        /* \"#utility.yul\":1293:1364   */\n      tag_40\n        /* \"#utility.yul\":1361:1362   */\n      0x00\n        /* \"#utility.yul\":1350:1359   */\n      dup4\n        /* \"#utility.yul\":1346:1363   */\n      add\n        /* \"#utility.yul\":1337:1343   */\n      dup5\n        /* \"#utility.yul\":1293:1364   */\n      tag_22\n      jump\t// in\n    tag_40:\n        /* \"#utility.yul\":1149:1371   */\n      swap3\n      swap2\n      pop\n      pop\n      jump\t// out\n\n    auxdata: 0xa2646970667358221220942d4d69ee7bccf3a9081b5697678aa10578238e5095b14be81890bf3cb4fec264736f6c63430008120033\n}\n",
				"bytecode": {
					"linkReferences": {},
					"object": "608060405234801561001057600080fd5b50610167806100206000396000f3fe608060405234801561001057600080fd5b506004361061002b5760003560e01c8063acd9fd6514610030575b600080fd5b61004a600480360381019061004591906100da565b610060565b6040516100579190610116565b60405180910390f35b6000600a82106100735760099150610097565b6004821180156100835750600682105b156100915760059150610096565b600391505b5b819050919050565b600080fd5b6000819050919050565b6100b7816100a4565b81146100c257600080fd5b50565b6000813590506100d4816100ae565b92915050565b6000602082840312156100f0576100ef61009f565b5b60006100fe848285016100c5565b91505092915050565b610110816100a4565b82525050565b600060208201905061012b6000830184610107565b9291505056fea2646970667358221220942d4d69ee7bccf3a9081b5697678aa10578238e5095b14be81890bf3cb4fec264736f6c63430008120033",
					"opcodes": "PUSH1 0x80 PUSH1 0x40 MSTORE CALLVALUE DUP1 ISZERO PUSH2 0x10 JUMPI PUSH1 0x0 DUP1 REVERT JUMPDEST POP PUSH2 0x167 DUP1 PUSH2 0x20 PUSH1 0x0 CODECOPY PUSH1 0x0 RETURN INVALID PUSH1 0x80 PUSH1 0x40 MSTORE CALLVALUE DUP1 ISZERO PUSH2 0x10 JUMPI PUSH1 0x0 DUP1 REVERT JUMPDEST POP PUSH1 0x4 CALLDATASIZE LT PUSH2 0x2B JUMPI PUSH1 0x0 CALLDATALOAD PUSH1 0xE0 SHR DUP1 PUSH4 0xACD9FD65 EQ PUSH2 0x30 JUMPI JUMPDEST PUSH1 0x0 DUP1 REVERT JUMPDEST PUSH2 0x4A PUSH1 0x4 DUP1 CALLDATASIZE SUB DUP2 ADD SWAP1 PUSH2 0x45 SWAP2 SWAP1 PUSH2 0xDA JUMP JUMPDEST PUSH2 0x60 JUMP JUMPDEST PUSH1 0x40 MLOAD PUSH2 0x57 SWAP2 SWAP1 PUSH2 0x116 JUMP JUMPDEST PUSH1 0x40 MLOAD DUP1 SWAP2 SUB SWAP1 RETURN JUMPDEST PUSH1 0x0 PUSH1 0xA DUP3 LT PUSH2 0x73 JUMPI PUSH1 0x9 SWAP2 POP PUSH2 0x97 JUMP JUMPDEST PUSH1 0x4 DUP3 GT DUP1 ISZERO PUSH2 0x83 JUMPI POP PUSH1 0x6 DUP3 LT JUMPDEST ISZERO PUSH2 0x91 JUMPI PUSH1 0x5 SWAP2 POP PUSH2 0x96 JUMP JUMPDEST PUSH1 0x3 SWAP2 POP JUMPDEST JUMPDEST DUP2 SWAP1 POP SWAP2 SWAP1 POP JUMP JUMPDEST PUSH1 0x0 DUP1 REVERT JUMPDEST PUSH1 0x0 DUP2 SWAP1 POP SWAP2 SWAP1 POP JUMP JUMPDEST PUSH2 0xB7 DUP2 PUSH2 0xA4 JUMP JUMPDEST DUP2 EQ PUSH2 0xC2 JUMPI PUSH1 0x0 DUP1 REVERT JUMPDEST POP JUMP JUMPDEST PUSH1 0x0 DUP2 CALLDATALOAD SWAP1 POP PUSH2 0xD4 DUP2 PUSH2 0xAE JUMP JUMPDEST SWAP3 SWAP2 POP POP JUMP JUMPDEST PUSH1 0x0 PUSH1 0x20 DUP3 DUP5 SUB SLT ISZERO PUSH2 0xF0 JUMPI PUSH2 0xEF PUSH2 0x9F JUMP JUMPDEST JUMPDEST PUSH1 0x0 PUSH2 0xFE DUP5 DUP3 DUP6 ADD PUSH2 0xC5 JUMP JUMPDEST SWAP2 POP POP SWAP3 SWAP2 POP POP JUMP JUMPDEST PUSH2 0x110 DUP2 PUSH2 0xA4 JUMP JUMPDEST DUP3 MSTORE POP POP JUMP JUMPDEST PUSH1 0x0 PUSH1 0x20 DUP3 ADD SWAP1 POP PUSH2 0x12B PUSH1 0x0 DUP4 ADD DUP5 PUSH2 0x107 JUMP JUMPDEST SWAP3 SWAP2 POP POP JUMP INVALID LOG2 PUSH5 0x6970667358 0x22 SLT KECCAK256 SWAP5 0x2D 0x4D PUSH10 0xEE7BCCF3A9081B569767 DUP11 LOG1 SDIV PUSH25 0x238E5095B14BE81890BF3CB4FEC264736F6C63430008120033 "
				},
				"gasEstimates": {
					"creation": {
						"codeDepositCost": "71800",
						"executionCost": "123",
						"totalCost": "71923"
					},
					"external": {
						"fun1(uint256)": "infinite"
					}
				},
				"methodIdentifiers": {
					"fun1(uint256)": "acd9fd65"
				}
			},
			"storageLayout": {
				"storage": [],
				"types": null
			},
			"userdoc": {
				"kind": "user",
				"methods": {},
				"version": 1
			}
		}
	}
}