{
	"Ex2_3.sol": {
		"Ex2_3": {
			"abi": [
				{
					"inputs": [],
					"name": "arithmetic",
					"outputs": [
						{
							"internalType": "uint256",
							"name": "",
							"type": "uint256"
						},
						{
							"internalType": "uint256",
							"name": "",
							"type": "uint256"
						},
						{
							"internalType": "uint256",
							"name": "",
							"type": "uint256"
						},
						{
							"internalType": "uint256",
							"name": "",
							"type": "uint256"
						},
						{
							"internalType": "uint256",
							"name": "",
							"type": "uint256"
						},
						{
							"internalType": "uint256",
							"name": "",
							"type": "uint256"
						}
					],
					"stateMutability": "view",
					"type": "function"
				}
			],
			"devdoc": {
				"kind": "dev",
				"methods": {},
				"version": 1
			},
			"evm": {
				"assembly": "    /* \"Ex2_3.sol\":76:420  contract Ex2_3 {\r... */\n  mstore(0x40, 0x80)\n    /* \"Ex2_3.sol\":113:116  5+2 */\n  0x07\n    /* \"Ex2_3.sol\":104:116  uint a = 5+2 */\n  0x00\n  sstore\n    /* \"Ex2_3.sol\":132:135  5-2 */\n  0x03\n    /* \"Ex2_3.sol\":123:135  uint b = 5-2 */\n  0x01\n  sstore\n    /* \"Ex2_3.sol\":151:154  5*2 */\n  0x0a\n    /* \"Ex2_3.sol\":142:154  uint c = 5*2 */\n  0x02\n  sstore\n    /* \"Ex2_3.sol\":170:173  5/5 */\n  0x01\n    /* \"Ex2_3.sol\":161:173  uint d = 5/5 */\n  0x03\n  sstore\n    /* \"Ex2_3.sol\":189:192  5%2 */\n  0x01\n    /* \"Ex2_3.sol\":180:192  uint e = 5%2 */\n  0x04\n  sstore\n    /* \"Ex2_3.sol\":208:212  5**2 */\n  0x19\n    /* \"Ex2_3.sol\":199:212  uint f = 5**2 */\n  0x05\n  sstore\n    /* \"Ex2_3.sol\":76:420  contract Ex2_3 {\r... */\n  callvalue\n  dup1\n  iszero\n  tag_1\n  jumpi\n  0x00\n  dup1\n  revert\ntag_1:\n  pop\n  dataSize(sub_0)\n  dup1\n  dataOffset(sub_0)\n  0x00\n  codecopy\n  0x00\n  return\nstop\n\nsub_0: assembly {\n        /* \"Ex2_3.sol\":76:420  contract Ex2_3 {\r... */\n      mstore(0x40, 0x80)\n      callvalue\n      dup1\n      iszero\n      tag_1\n      jumpi\n      0x00\n      dup1\n      revert\n    tag_1:\n      pop\n      jumpi(tag_2, lt(calldatasize, 0x04))\n      shr(0xe0, calldataload(0x00))\n      dup1\n      0x980a67fd\n      eq\n      tag_3\n      jumpi\n    tag_2:\n      0x00\n      dup1\n      revert\n        /* \"Ex2_3.sol\":221:333  function arithmetic() public view returns(uint,uint,uint,uint,uint,uint){\r... */\n    tag_3:\n      tag_4\n      tag_5\n      jump\t// in\n    tag_4:\n      mload(0x40)\n      tag_6\n      swap7\n      swap6\n      swap5\n      swap4\n      swap3\n      swap2\n      swap1\n      tag_7\n      jump\t// in\n    tag_6:\n      mload(0x40)\n      dup1\n      swap2\n      sub\n      swap1\n      return\n    tag_5:\n        /* \"Ex2_3.sol\":263:267  uint */\n      0x00\n        /* \"Ex2_3.sol\":268:272  uint */\n      dup1\n        /* \"Ex2_3.sol\":273:277  uint */\n      0x00\n        /* \"Ex2_3.sol\":278:282  uint */\n      dup1\n        /* \"Ex2_3.sol\":283:287  uint */\n      0x00\n        /* \"Ex2_3.sol\":288:292  uint */\n      dup1\n        /* \"Ex2_3.sol\":313:314  a */\n      sload(0x00)\n        /* \"Ex2_3.sol\":315:316  b */\n      sload(0x01)\n        /* \"Ex2_3.sol\":317:318  c */\n      sload(0x02)\n        /* \"Ex2_3.sol\":319:320  d */\n      sload(0x03)\n        /* \"Ex2_3.sol\":321:322  e */\n      sload(0x04)\n        /* \"Ex2_3.sol\":323:324  f */\n      sload(0x05)\n        /* \"Ex2_3.sol\":306:325  return(a,b,c,d,e,f) */\n      swap6\n      pop\n      swap6\n      pop\n      swap6\n      pop\n      swap6\n      pop\n      swap6\n      pop\n      swap6\n      pop\n        /* \"Ex2_3.sol\":221:333  function arithmetic() public view returns(uint,uint,uint,uint,uint,uint){\r... */\n      swap1\n      swap2\n      swap3\n      swap4\n      swap5\n      swap6\n      jump\t// out\n        /* \"#utility.yul\":7:125   */\n    tag_10:\n        /* \"#utility.yul\":94:118   */\n      tag_12\n        /* \"#utility.yul\":112:117   */\n      dup2\n        /* \"#utility.yul\":94:118   */\n      tag_13\n      jump\t// in\n    tag_12:\n        /* \"#utility.yul\":89:92   */\n      dup3\n        /* \"#utility.yul\":82:119   */\n      mstore\n        /* \"#utility.yul\":7:125   */\n      pop\n      pop\n      jump\t// out\n        /* \"#utility.yul\":131:906   */\n    tag_7:\n        /* \"#utility.yul\":364:368   */\n      0x00\n        /* \"#utility.yul\":402:405   */\n      0xc0\n        /* \"#utility.yul\":391:400   */\n      dup3\n        /* \"#utility.yul\":387:406   */\n      add\n        /* \"#utility.yul\":379:406   */\n      swap1\n      pop\n        /* \"#utility.yul\":416:487   */\n      tag_15\n        /* \"#utility.yul\":484:485   */\n      0x00\n        /* \"#utility.yul\":473:482   */\n      dup4\n        /* \"#utility.yul\":469:486   */\n      add\n        /* \"#utility.yul\":460:466   */\n      dup10\n        /* \"#utility.yul\":416:487   */\n      tag_10\n      jump\t// in\n    tag_15:\n        /* \"#utility.yul\":497:569   */\n      tag_16\n        /* \"#utility.yul\":565:567   */\n      0x20\n        /* \"#utility.yul\":554:563   */\n      dup4\n        /* \"#utility.yul\":550:568   */\n      add\n        /* \"#utility.yul\":541:547   */\n      dup9\n        /* \"#utility.yul\":497:569   */\n      tag_10\n      jump\t// in\n    tag_16:\n        /* \"#utility.yul\":579:651   */\n      tag_17\n        /* \"#utility.yul\":647:649   */\n      0x40\n        /* \"#utility.yul\":636:645   */\n      dup4\n        /* \"#utility.yul\":632:650   */\n      add\n        /* \"#utility.yul\":623:629   */\n      dup8\n        /* \"#utility.yul\":579:651   */\n      tag_10\n      jump\t// in\n    tag_17:\n        /* \"#utility.yul\":661:733   */\n      tag_18\n        /* \"#utility.yul\":729:731   */\n      0x60\n        /* \"#utility.yul\":718:727   */\n      dup4\n        /* \"#utility.yul\":714:732   */\n      add\n        /* \"#utility.yul\":705:711   */\n      dup7\n        /* \"#utility.yul\":661:733   */\n      tag_10\n      jump\t// in\n    tag_18:\n        /* \"#utility.yul\":743:816   */\n      tag_19\n        /* \"#utility.yul\":811:814   */\n      0x80\n        /* \"#utility.yul\":800:809   */\n      dup4\n        /* \"#utility.yul\":796:815   */\n      add\n        /* \"#utility.yul\":787:793   */\n      dup6\n        /* \"#utility.yul\":743:816   */\n      tag_10\n      jump\t// in\n    tag_19:\n        /* \"#utility.yul\":826:899   */\n      tag_20\n        /* \"#utility.yul\":894:897   */\n      0xa0\n        /* \"#utility.yul\":883:892   */\n      dup4\n        /* \"#utility.yul\":879:898   */\n      add\n        /* \"#utility.yul\":870:876   */\n      dup5\n        /* \"#utility.yul\":826:899   */\n      tag_10\n      jump\t// in\n    tag_20:\n        /* \"#utility.yul\":131:906   */\n      swap8\n      swap7\n      pop\n      pop\n      pop\n      pop\n      pop\n      pop\n      pop\n      jump\t// out\n        /* \"#utility.yul\":912:989   */\n    tag_13:\n        /* \"#utility.yul\":949:956   */\n      0x00\n        /* \"#utility.yul\":978:983   */\n      dup2\n        /* \"#utility.yul\":967:983   */\n      swap1\n      pop\n        /* \"#utility.yul\":912:989   */\n      swap2\n      swap1\n      pop\n      jump\t// out\n\n    auxdata: 0xa264697066735822122022d9c69411755cef03f6f638da2680398500d5e283b30685f67c7af50411935b64736f6c63430008070033\n}\n",
				"bytecode": {
					"linkReferences": {},
					"object": "608060405260076000556003600155600a60025560016003556001600455601960055534801561002e57600080fd5b5061011d8061003e6000396000f3fe6080604052348015600f57600080fd5b506004361060285760003560e01c8063980a67fd14602d575b600080fd5b6033604c565b6040516043969594939291906088565b60405180910390f35b600080600080600080600054600154600254600354600454600554955095509550955095509550909192939495565b60828160dd565b82525050565b600060c082019050609b6000830189607b565b60a66020830188607b565b60b16040830187607b565b60bc6060830186607b565b60c76080830185607b565b60d260a0830184607b565b979650505050505050565b600081905091905056fea264697066735822122022d9c69411755cef03f6f638da2680398500d5e283b30685f67c7af50411935b64736f6c63430008070033",
					"opcodes": "PUSH1 0x80 PUSH1 0x40 MSTORE PUSH1 0x7 PUSH1 0x0 SSTORE PUSH1 0x3 PUSH1 0x1 SSTORE PUSH1 0xA PUSH1 0x2 SSTORE PUSH1 0x1 PUSH1 0x3 SSTORE PUSH1 0x1 PUSH1 0x4 SSTORE PUSH1 0x19 PUSH1 0x5 SSTORE CALLVALUE DUP1 ISZERO PUSH2 0x2E JUMPI PUSH1 0x0 DUP1 REVERT JUMPDEST POP PUSH2 0x11D DUP1 PUSH2 0x3E PUSH1 0x0 CODECOPY PUSH1 0x0 RETURN INVALID PUSH1 0x80 PUSH1 0x40 MSTORE CALLVALUE DUP1 ISZERO PUSH1 0xF JUMPI PUSH1 0x0 DUP1 REVERT JUMPDEST POP PUSH1 0x4 CALLDATASIZE LT PUSH1 0x28 JUMPI PUSH1 0x0 CALLDATALOAD PUSH1 0xE0 SHR DUP1 PUSH4 0x980A67FD EQ PUSH1 0x2D JUMPI JUMPDEST PUSH1 0x0 DUP1 REVERT JUMPDEST PUSH1 0x33 PUSH1 0x4C JUMP JUMPDEST PUSH1 0x40 MLOAD PUSH1 0x43 SWAP7 SWAP6 SWAP5 SWAP4 SWAP3 SWAP2 SWAP1 PUSH1 0x88 JUMP JUMPDEST PUSH1 0x40 MLOAD DUP1 SWAP2 SUB SWAP1 RETURN JUMPDEST PUSH1 0x0 DUP1 PUSH1 0x0 DUP1 PUSH1 0x0 DUP1 PUSH1 0x0 SLOAD PUSH1 0x1 SLOAD PUSH1 0x2 SLOAD PUSH1 0x3 SLOAD PUSH1 0x4 SLOAD PUSH1 0x5 SLOAD SWAP6 POP SWAP6 POP SWAP6 POP SWAP6 POP SWAP6 POP SWAP6 POP SWAP1 SWAP2 SWAP3 SWAP4 SWAP5 SWAP6 JUMP JUMPDEST PUSH1 0x82 DUP2 PUSH1 0xDD JUMP JUMPDEST DUP3 MSTORE POP POP JUMP JUMPDEST PUSH1 0x0 PUSH1 0xC0 DUP3 ADD SWAP1 POP PUSH1 0x9B PUSH1 0x0 DUP4 ADD DUP10 PUSH1 0x7B JUMP JUMPDEST PUSH1 0xA6 PUSH1 0x20 DUP4 ADD DUP9 PUSH1 0x7B JUMP JUMPDEST PUSH1 0xB1 PUSH1 0x40 DUP4 ADD DUP8 PUSH1 0x7B JUMP JUMPDEST PUSH1 0xBC PUSH1 0x60 DUP4 ADD DUP7 PUSH1 0x7B JUMP JUMPDEST PUSH1 0xC7 PUSH1 0x80 DUP4 ADD DUP6 PUSH1 0x7B JUMP JUMPDEST PUSH1 0xD2 PUSH1 0xA0 DUP4 ADD DUP5 PUSH1 0x7B JUMP JUMPDEST SWAP8 SWAP7 POP POP POP POP POP POP POP JUMP JUMPDEST PUSH1 0x0 DUP2 SWAP1 POP SWAP2 SWAP1 POP JUMP INVALID LOG2 PUSH5 0x6970667358 0x22 SLT KECCAK256 0x22 0xD9 0xC6 SWAP5 GT PUSH22 0x5CEF03F6F638DA2680398500D5E283B30685F67C7AF5 DIV GT SWAP4 JUMPDEST PUSH5 0x736F6C6343 STOP ADDMOD SMOD STOP CALLER "
				},
				"gasEstimates": {
					"creation": {
						"codeDepositCost": "57000",
						"executionCost": "132741",
						"totalCost": "189741"
					},
					"external": {
						"arithmetic()": "infinite"
					}
				},
				"methodIdentifiers": {
					"arithmetic()": "980a67fd"
				}
			},
			"storageLayout": {
				"storage": [
					{
						"astId": 6,
						"contract": "Ex2_3.sol:Ex2_3",
						"label": "a",
						"offset": 0,
						"slot": "0",
						"type": "t_uint256"
					},
					{
						"astId": 11,
						"contract": "Ex2_3.sol:Ex2_3",
						"label": "b",
						"offset": 0,
						"slot": "1",
						"type": "t_uint256"
					},
					{
						"astId": 16,
						"contract": "Ex2_3.sol:Ex2_3",
						"label": "c",
						"offset": 0,
						"slot": "2",
						"type": "t_uint256"
					},
					{
						"astId": 21,
						"contract": "Ex2_3.sol:Ex2_3",
						"label": "d",
						"offset": 0,
						"slot": "3",
						"type": "t_uint256"
					},
					{
						"astId": 26,
						"contract": "Ex2_3.sol:Ex2_3",
						"label": "e",
						"offset": 0,
						"slot": "4",
						"type": "t_uint256"
					},
					{
						"astId": 31,
						"contract": "Ex2_3.sol:Ex2_3",
						"label": "f",
						"offset": 0,
						"slot": "5",
						"type": "t_uint256"
					}
				],
				"types": {
					"t_uint256": {
						"encoding": "inplace",
						"label": "uint256",
						"numberOfBytes": "32"
					}
				}
			},
			"userdoc": {
				"kind": "user",
				"methods": {},
				"version": 1
			}
		}
	}
}