{
	"Ex2_5.sol": {
		"Ex2_5": {
			"abi": [
				{
					"inputs": [],
					"name": "compoundAssignment",
					"outputs": [
						{
							"internalType": "uint256",
							"name": "",
							"type": "uint256"
						},
						{
							"internalType": "uint256",
							"name": "",
							"type": "uint256"
						},
						{
							"internalType": "uint256",
							"name": "",
							"type": "uint256"
						},
						{
							"internalType": "uint256",
							"name": "",
							"type": "uint256"
						},
						{
							"internalType": "uint256",
							"name": "",
							"type": "uint256"
						}
					],
					"stateMutability": "nonpayable",
					"type": "function"
				}
			],
			"devdoc": {
				"kind": "dev",
				"methods": {},
				"version": 1
			},
			"evm": {
				"assembly": "    /* \"Ex2_5.sol\":76:468  contract Ex2_5 {\r... */\n  mstore(0x40, 0x80)\n    /* \"Ex2_5.sol\":113:114  5 */\n  0x05\n    /* \"Ex2_5.sol\":104:114  uint a = 5 */\n  0x00\n  sstore\n    /* \"Ex2_5.sol\":130:131  5 */\n  0x05\n    /* \"Ex2_5.sol\":121:131  uint b = 5 */\n  0x01\n  sstore\n    /* \"Ex2_5.sol\":147:148  5 */\n  0x05\n    /* \"Ex2_5.sol\":138:148  uint c = 5 */\n  0x02\n  sstore\n    /* \"Ex2_5.sol\":164:165  5 */\n  0x05\n    /* \"Ex2_5.sol\":155:165  uint d = 5 */\n  0x03\n  sstore\n    /* \"Ex2_5.sol\":181:182  5 */\n  0x05\n    /* \"Ex2_5.sol\":172:182  uint e = 5 */\n  0x04\n  sstore\n    /* \"Ex2_5.sol\":76:468  contract Ex2_5 {\r... */\n  callvalue\n  dup1\n  iszero\n  tag_1\n  jumpi\n  0x00\n  dup1\n  revert\ntag_1:\n  pop\n  dataSize(sub_0)\n  dup1\n  dataOffset(sub_0)\n  0x00\n  codecopy\n  0x00\n  return\nstop\n\nsub_0: assembly {\n        /* \"Ex2_5.sol\":76:468  contract Ex2_5 {\r... */\n      mstore(0x40, 0x80)\n      callvalue\n      dup1\n      iszero\n      tag_1\n      jumpi\n      0x00\n      dup1\n      revert\n    tag_1:\n      pop\n      jumpi(tag_2, lt(calldatasize, 0x04))\n      shr(0xe0, calldataload(0x00))\n      dup1\n      0xe1ce4d3f\n      eq\n      tag_3\n      jumpi\n    tag_2:\n      0x00\n      dup1\n      revert\n        /* \"Ex2_5.sol\":195:381  function compoundAssignment() public returns(uint,uint,uint,uint,uint){\r... */\n    tag_3:\n      tag_4\n      tag_5\n      jump\t// in\n    tag_4:\n      mload(0x40)\n      tag_6\n      swap6\n      swap5\n      swap4\n      swap3\n      swap2\n      swap1\n      tag_7\n      jump\t// in\n    tag_6:\n      mload(0x40)\n      dup1\n      swap2\n      sub\n      swap1\n      return\n    tag_5:\n        /* \"Ex2_5.sol\":240:244  uint */\n      0x00\n        /* \"Ex2_5.sol\":245:249  uint */\n      dup1\n        /* \"Ex2_5.sol\":250:254  uint */\n      0x00\n        /* \"Ex2_5.sol\":255:259  uint */\n      dup1\n        /* \"Ex2_5.sol\":260:264  uint */\n      0x00\n        /* \"Ex2_5.sol\":280:281  2 */\n      0x02\n        /* \"Ex2_5.sol\":276:277  a */\n      0x00\n      dup1\n        /* \"Ex2_5.sol\":276:281  a +=2 */\n      dup3\n      dup3\n      sload\n      tag_9\n      swap2\n      swap1\n      tag_10\n      jump\t// in\n    tag_9:\n      swap3\n      pop\n      pop\n      dup2\n      swap1\n      sstore\n      pop\n        /* \"Ex2_5.sol\":296:297  2 */\n      0x02\n        /* \"Ex2_5.sol\":292:293  b */\n      0x01\n      0x00\n        /* \"Ex2_5.sol\":292:297  b -=2 */\n      dup3\n      dup3\n      sload\n      tag_11\n      swap2\n      swap1\n      tag_12\n      jump\t// in\n    tag_11:\n      swap3\n      pop\n      pop\n      dup2\n      swap1\n      sstore\n      pop\n        /* \"Ex2_5.sol\":312:313  2 */\n      0x02\n        /* \"Ex2_5.sol\":308:309  c */\n      dup1\n      0x00\n        /* \"Ex2_5.sol\":308:313  c *=2 */\n      dup3\n      dup3\n      sload\n      tag_13\n      swap2\n      swap1\n      tag_14\n      jump\t// in\n    tag_13:\n      swap3\n      pop\n      pop\n      dup2\n      swap1\n      sstore\n      pop\n        /* \"Ex2_5.sol\":328:329  2 */\n      0x02\n        /* \"Ex2_5.sol\":324:325  d */\n      0x03\n      0x00\n        /* \"Ex2_5.sol\":324:329  d /=2 */\n      dup3\n      dup3\n      sload\n      tag_15\n      swap2\n      swap1\n      tag_16\n      jump\t// in\n    tag_15:\n      swap3\n      pop\n      pop\n      dup2\n      swap1\n      sstore\n      pop\n        /* \"Ex2_5.sol\":344:345  2 */\n      0x02\n        /* \"Ex2_5.sol\":340:341  e */\n      0x04\n      0x00\n        /* \"Ex2_5.sol\":340:345  e %=2 */\n      dup3\n      dup3\n      sload\n      tag_17\n      swap2\n      swap1\n      tag_18\n      jump\t// in\n    tag_17:\n      swap3\n      pop\n      pop\n      dup2\n      swap1\n      sstore\n      pop\n        /* \"Ex2_5.sol\":363:364  a */\n      sload(0x00)\n        /* \"Ex2_5.sol\":365:366  b */\n      sload(0x01)\n        /* \"Ex2_5.sol\":367:368  c */\n      sload(0x02)\n        /* \"Ex2_5.sol\":369:370  d */\n      sload(0x03)\n        /* \"Ex2_5.sol\":371:372  e */\n      sload(0x04)\n        /* \"Ex2_5.sol\":356:373  return(a,b,c,d,e) */\n      swap5\n      pop\n      swap5\n      pop\n      swap5\n      pop\n      swap5\n      pop\n      swap5\n      pop\n        /* \"Ex2_5.sol\":195:381  function compoundAssignment() public returns(uint,uint,uint,uint,uint){\r... */\n      swap1\n      swap2\n      swap3\n      swap4\n      swap5\n      jump\t// out\n        /* \"#utility.yul\":7:125   */\n    tag_20:\n        /* \"#utility.yul\":94:118   */\n      tag_22\n        /* \"#utility.yul\":112:117   */\n      dup2\n        /* \"#utility.yul\":94:118   */\n      tag_23\n      jump\t// in\n    tag_22:\n        /* \"#utility.yul\":89:92   */\n      dup3\n        /* \"#utility.yul\":82:119   */\n      mstore\n        /* \"#utility.yul\":7:125   */\n      pop\n      pop\n      jump\t// out\n        /* \"#utility.yul\":131:795   */\n    tag_7:\n        /* \"#utility.yul\":336:340   */\n      0x00\n        /* \"#utility.yul\":374:377   */\n      0xa0\n        /* \"#utility.yul\":363:372   */\n      dup3\n        /* \"#utility.yul\":359:378   */\n      add\n        /* \"#utility.yul\":351:378   */\n      swap1\n      pop\n        /* \"#utility.yul\":388:459   */\n      tag_25\n        /* \"#utility.yul\":456:457   */\n      0x00\n        /* \"#utility.yul\":445:454   */\n      dup4\n        /* \"#utility.yul\":441:458   */\n      add\n        /* \"#utility.yul\":432:438   */\n      dup9\n        /* \"#utility.yul\":388:459   */\n      tag_20\n      jump\t// in\n    tag_25:\n        /* \"#utility.yul\":469:541   */\n      tag_26\n        /* \"#utility.yul\":537:539   */\n      0x20\n        /* \"#utility.yul\":526:535   */\n      dup4\n        /* \"#utility.yul\":522:540   */\n      add\n        /* \"#utility.yul\":513:519   */\n      dup8\n        /* \"#utility.yul\":469:541   */\n      tag_20\n      jump\t// in\n    tag_26:\n        /* \"#utility.yul\":551:623   */\n      tag_27\n        /* \"#utility.yul\":619:621   */\n      0x40\n        /* \"#utility.yul\":608:617   */\n      dup4\n        /* \"#utility.yul\":604:622   */\n      add\n        /* \"#utility.yul\":595:601   */\n      dup7\n        /* \"#utility.yul\":551:623   */\n      tag_20\n      jump\t// in\n    tag_27:\n        /* \"#utility.yul\":633:705   */\n      tag_28\n        /* \"#utility.yul\":701:703   */\n      0x60\n        /* \"#utility.yul\":690:699   */\n      dup4\n        /* \"#utility.yul\":686:704   */\n      add\n        /* \"#utility.yul\":677:683   */\n      dup6\n        /* \"#utility.yul\":633:705   */\n      tag_20\n      jump\t// in\n    tag_28:\n        /* \"#utility.yul\":715:788   */\n      tag_29\n        /* \"#utility.yul\":783:786   */\n      0x80\n        /* \"#utility.yul\":772:781   */\n      dup4\n        /* \"#utility.yul\":768:787   */\n      add\n        /* \"#utility.yul\":759:765   */\n      dup5\n        /* \"#utility.yul\":715:788   */\n      tag_20\n      jump\t// in\n    tag_29:\n        /* \"#utility.yul\":131:795   */\n      swap7\n      swap6\n      pop\n      pop\n      pop\n      pop\n      pop\n      pop\n      jump\t// out\n        /* \"#utility.yul\":801:1106   */\n    tag_10:\n        /* \"#utility.yul\":841:844   */\n      0x00\n        /* \"#utility.yul\":860:880   */\n      tag_31\n        /* \"#utility.yul\":878:879   */\n      dup3\n        /* \"#utility.yul\":860:880   */\n      tag_23\n      jump\t// in\n    tag_31:\n        /* \"#utility.yul\":855:880   */\n      swap2\n      pop\n        /* \"#utility.yul\":894:914   */\n      tag_32\n        /* \"#utility.yul\":912:913   */\n      dup4\n        /* \"#utility.yul\":894:914   */\n      tag_23\n      jump\t// in\n    tag_32:\n        /* \"#utility.yul\":889:914   */\n      swap3\n      pop\n        /* \"#utility.yul\":1048:1049   */\n      dup3\n        /* \"#utility.yul\":980:1046   */\n      0xffffffffffffffffffffffffffffffffffffffffffffffffffffffffffffffff\n        /* \"#utility.yul\":976:1050   */\n      sub\n        /* \"#utility.yul\":973:974   */\n      dup3\n        /* \"#utility.yul\":970:1051   */\n      gt\n        /* \"#utility.yul\":967:1074   */\n      iszero\n      tag_33\n      jumpi\n        /* \"#utility.yul\":1054:1072   */\n      tag_34\n      tag_35\n      jump\t// in\n    tag_34:\n        /* \"#utility.yul\":967:1074   */\n    tag_33:\n        /* \"#utility.yul\":1098:1099   */\n      dup3\n        /* \"#utility.yul\":1095:1096   */\n      dup3\n        /* \"#utility.yul\":1091:1100   */\n      add\n        /* \"#utility.yul\":1084:1100   */\n      swap1\n      pop\n        /* \"#utility.yul\":801:1106   */\n      swap3\n      swap2\n      pop\n      pop\n      jump\t// out\n        /* \"#utility.yul\":1112:1297   */\n    tag_16:\n        /* \"#utility.yul\":1152:1153   */\n      0x00\n        /* \"#utility.yul\":1169:1189   */\n      tag_37\n        /* \"#utility.yul\":1187:1188   */\n      dup3\n        /* \"#utility.yul\":1169:1189   */\n      tag_23\n      jump\t// in\n    tag_37:\n        /* \"#utility.yul\":1164:1189   */\n      swap2\n      pop\n        /* \"#utility.yul\":1203:1223   */\n      tag_38\n        /* \"#utility.yul\":1221:1222   */\n      dup4\n        /* \"#utility.yul\":1203:1223   */\n      tag_23\n      jump\t// in\n    tag_38:\n        /* \"#utility.yul\":1198:1223   */\n      swap3\n      pop\n        /* \"#utility.yul\":1242:1243   */\n      dup3\n        /* \"#utility.yul\":1232:1267   */\n      tag_39\n      jumpi\n        /* \"#utility.yul\":1247:1265   */\n      tag_40\n      tag_41\n      jump\t// in\n    tag_40:\n        /* \"#utility.yul\":1232:1267   */\n    tag_39:\n        /* \"#utility.yul\":1289:1290   */\n      dup3\n        /* \"#utility.yul\":1286:1287   */\n      dup3\n        /* \"#utility.yul\":1282:1291   */\n      div\n        /* \"#utility.yul\":1277:1291   */\n      swap1\n      pop\n        /* \"#utility.yul\":1112:1297   */\n      swap3\n      swap2\n      pop\n      pop\n      jump\t// out\n        /* \"#utility.yul\":1303:1651   */\n    tag_14:\n        /* \"#utility.yul\":1343:1350   */\n      0x00\n        /* \"#utility.yul\":1366:1386   */\n      tag_43\n        /* \"#utility.yul\":1384:1385   */\n      dup3\n        /* \"#utility.yul\":1366:1386   */\n      tag_23\n      jump\t// in\n    tag_43:\n        /* \"#utility.yul\":1361:1386   */\n      swap2\n      pop\n        /* \"#utility.yul\":1400:1420   */\n      tag_44\n        /* \"#utility.yul\":1418:1419   */\n      dup4\n        /* \"#utility.yul\":1400:1420   */\n      tag_23\n      jump\t// in\n    tag_44:\n        /* \"#utility.yul\":1395:1420   */\n      swap3\n      pop\n        /* \"#utility.yul\":1588:1589   */\n      dup2\n        /* \"#utility.yul\":1520:1586   */\n      0xffffffffffffffffffffffffffffffffffffffffffffffffffffffffffffffff\n        /* \"#utility.yul\":1516:1590   */\n      div\n        /* \"#utility.yul\":1513:1514   */\n      dup4\n        /* \"#utility.yul\":1510:1591   */\n      gt\n        /* \"#utility.yul\":1505:1506   */\n      dup3\n        /* \"#utility.yul\":1498:1507   */\n      iszero\n        /* \"#utility.yul\":1491:1508   */\n      iszero\n        /* \"#utility.yul\":1487:1592   */\n      and\n        /* \"#utility.yul\":1484:1615   */\n      iszero\n      tag_45\n      jumpi\n        /* \"#utility.yul\":1595:1613   */\n      tag_46\n      tag_35\n      jump\t// in\n    tag_46:\n        /* \"#utility.yul\":1484:1615   */\n    tag_45:\n        /* \"#utility.yul\":1643:1644   */\n      dup3\n        /* \"#utility.yul\":1640:1641   */\n      dup3\n        /* \"#utility.yul\":1636:1645   */\n      mul\n        /* \"#utility.yul\":1625:1645   */\n      swap1\n      pop\n        /* \"#utility.yul\":1303:1651   */\n      swap3\n      swap2\n      pop\n      pop\n      jump\t// out\n        /* \"#utility.yul\":1657:1848   */\n    tag_12:\n        /* \"#utility.yul\":1697:1701   */\n      0x00\n        /* \"#utility.yul\":1717:1737   */\n      tag_48\n        /* \"#utility.yul\":1735:1736   */\n      dup3\n        /* \"#utility.yul\":1717:1737   */\n      tag_23\n      jump\t// in\n    tag_48:\n        /* \"#utility.yul\":1712:1737   */\n      swap2\n      pop\n        /* \"#utility.yul\":1751:1771   */\n      tag_49\n        /* \"#utility.yul\":1769:1770   */\n      dup4\n        /* \"#utility.yul\":1751:1771   */\n      tag_23\n      jump\t// in\n    tag_49:\n        /* \"#utility.yul\":1746:1771   */\n      swap3\n      pop\n        /* \"#utility.yul\":1790:1791   */\n      dup3\n        /* \"#utility.yul\":1787:1788   */\n      dup3\n        /* \"#utility.yul\":1784:1792   */\n      lt\n        /* \"#utility.yul\":1781:1815   */\n      iszero\n      tag_50\n      jumpi\n        /* \"#utility.yul\":1795:1813   */\n      tag_51\n      tag_35\n      jump\t// in\n    tag_51:\n        /* \"#utility.yul\":1781:1815   */\n    tag_50:\n        /* \"#utility.yul\":1840:1841   */\n      dup3\n        /* \"#utility.yul\":1837:1838   */\n      dup3\n        /* \"#utility.yul\":1833:1842   */\n      sub\n        /* \"#utility.yul\":1825:1842   */\n      swap1\n      pop\n        /* \"#utility.yul\":1657:1848   */\n      swap3\n      swap2\n      pop\n      pop\n      jump\t// out\n        /* \"#utility.yul\":1854:1931   */\n    tag_23:\n        /* \"#utility.yul\":1891:1898   */\n      0x00\n        /* \"#utility.yul\":1920:1925   */\n      dup2\n        /* \"#utility.yul\":1909:1925   */\n      swap1\n      pop\n        /* \"#utility.yul\":1854:1931   */\n      swap2\n      swap1\n      pop\n      jump\t// out\n        /* \"#utility.yul\":1937:2113   */\n    tag_18:\n        /* \"#utility.yul\":1969:1970   */\n      0x00\n        /* \"#utility.yul\":1986:2006   */\n      tag_54\n        /* \"#utility.yul\":2004:2005   */\n      dup3\n        /* \"#utility.yul\":1986:2006   */\n      tag_23\n      jump\t// in\n    tag_54:\n        /* \"#utility.yul\":1981:2006   */\n      swap2\n      pop\n        /* \"#utility.yul\":2020:2040   */\n      tag_55\n        /* \"#utility.yul\":2038:2039   */\n      dup4\n        /* \"#utility.yul\":2020:2040   */\n      tag_23\n      jump\t// in\n    tag_55:\n        /* \"#utility.yul\":2015:2040   */\n      swap3\n      pop\n        /* \"#utility.yul\":2059:2060   */\n      dup3\n        /* \"#utility.yul\":2049:2084   */\n      tag_56\n      jumpi\n        /* \"#utility.yul\":2064:2082   */\n      tag_57\n      tag_41\n      jump\t// in\n    tag_57:\n        /* \"#utility.yul\":2049:2084   */\n    tag_56:\n        /* \"#utility.yul\":2105:2106   */\n      dup3\n        /* \"#utility.yul\":2102:2103   */\n      dup3\n        /* \"#utility.yul\":2098:2107   */\n      mod\n        /* \"#utility.yul\":2093:2107   */\n      swap1\n      pop\n        /* \"#utility.yul\":1937:2113   */\n      swap3\n      swap2\n      pop\n      pop\n      jump\t// out\n        /* \"#utility.yul\":2119:2299   */\n    tag_35:\n        /* \"#utility.yul\":2167:2244   */\n      0x4e487b7100000000000000000000000000000000000000000000000000000000\n        /* \"#utility.yul\":2164:2165   */\n      0x00\n        /* \"#utility.yul\":2157:2245   */\n      mstore\n        /* \"#utility.yul\":2264:2268   */\n      0x11\n        /* \"#utility.yul\":2261:2262   */\n      0x04\n        /* \"#utility.yul\":2254:2269   */\n      mstore\n        /* \"#utility.yul\":2288:2292   */\n      0x24\n        /* \"#utility.yul\":2285:2286   */\n      0x00\n        /* \"#utility.yul\":2278:2293   */\n      revert\n        /* \"#utility.yul\":2305:2485   */\n    tag_41:\n        /* \"#utility.yul\":2353:2430   */\n      0x4e487b7100000000000000000000000000000000000000000000000000000000\n        /* \"#utility.yul\":2350:2351   */\n      0x00\n        /* \"#utility.yul\":2343:2431   */\n      mstore\n        /* \"#utility.yul\":2450:2454   */\n      0x12\n        /* \"#utility.yul\":2447:2448   */\n      0x04\n        /* \"#utility.yul\":2440:2455   */\n      mstore\n        /* \"#utility.yul\":2474:2478   */\n      0x24\n        /* \"#utility.yul\":2471:2472   */\n      0x00\n        /* \"#utility.yul\":2464:2479   */\n      revert\n\n    auxdata: 0xa26469706673582212204ac0948ef2ca4ecc68a02506137877320ef897319098199eaaeeb037660f270164736f6c63430008070033\n}\n",
				"bytecode": {
					"linkReferences": {},
					"object": "60806040526005600055600560015560056002556005600355600560045534801561002957600080fd5b50610340806100396000396000f3fe608060405234801561001057600080fd5b506004361061002b5760003560e01c8063e1ce4d3f14610030575b600080fd5b610038610052565b604051610049959493929190610109565b60405180910390f35b6000806000806000600260008082825461006c919061015c565b92505081905550600260016000828254610086919061023d565b92505081905550600280600082825461009f91906101e3565b925050819055506002600360008282546100b991906101b2565b925050819055506002600460008282546100d3919061027b565b92505081905550600054600154600254600354600454945094509450945094509091929394565b61010381610271565b82525050565b600060a08201905061011e60008301886100fa565b61012b60208301876100fa565b61013860408301866100fa565b61014560608301856100fa565b61015260808301846100fa565b9695505050505050565b600061016782610271565b915061017283610271565b9250827fffffffffffffffffffffffffffffffffffffffffffffffffffffffffffffffff038211156101a7576101a66102ac565b5b828201905092915050565b60006101bd82610271565b91506101c883610271565b9250826101d8576101d76102db565b5b828204905092915050565b60006101ee82610271565b91506101f983610271565b9250817fffffffffffffffffffffffffffffffffffffffffffffffffffffffffffffffff0483118215151615610232576102316102ac565b5b828202905092915050565b600061024882610271565b915061025383610271565b925082821015610266576102656102ac565b5b828203905092915050565b6000819050919050565b600061028682610271565b915061029183610271565b9250826102a1576102a06102db565b5b828206905092915050565b7f4e487b7100000000000000000000000000000000000000000000000000000000600052601160045260246000fd5b7f4e487b7100000000000000000000000000000000000000000000000000000000600052601260045260246000fdfea26469706673582212204ac0948ef2ca4ecc68a02506137877320ef897319098199eaaeeb037660f270164736f6c63430008070033",
					"opcodes": "PUSH1 0x80 PUSH1 0x40 MSTORE PUSH1 0x5 PUSH1 0x0 SSTORE PUSH1 0x5 PUSH1 0x1 SSTORE PUSH1 0x5 PUSH1 0x2 SSTORE PUSH1 0x5 PUSH1 0x3 SSTORE PUSH1 0x5 PUSH1 0x4 SSTORE CALLVALUE DUP1 ISZERO PUSH2 0x29 JUMPI PUSH1 0x0 DUP1 REVERT JUMPDEST POP PUSH2 0x340 DUP1 PUSH2 0x39 PUSH1 0x0 CODECOPY PUSH1 0x0 RETURN INVALID PUSH1 0x80 PUSH1 0x40 MSTORE CALLVALUE DUP1 ISZERO PUSH2 0x10 JUMPI PUSH1 0x0 DUP1 REVERT JUMPDEST POP PUSH1 0x4 CALLDATASIZE LT PUSH2 0x2B JUMPI PUSH1 0x0 CALLDATALOAD PUSH1 0xE0 SHR DUP1 PUSH4 0xE1CE4D3F EQ PUSH2 0x30 JUMPI JUMPDEST PUSH1 0x0 DUP1 REVERT JUMPDEST PUSH2 0x38 PUSH2 0x52 JUMP JUMPDEST PUSH1 0x40 MLOAD PUSH2 0x49 SWAP6 SWAP5 SWAP4 SWAP3 SWAP2 SWAP1 PUSH2 0x109 JUMP JUMPDEST PUSH1 0x40 MLOAD DUP1 SWAP2 SUB SWAP1 RETURN JUMPDEST PUSH1 0x0 DUP1 PUSH1 0x0 DUP1 PUSH1 0x0 PUSH1 0x2 PUSH1 0x0 DUP1 DUP3 DUP3 SLOAD PUSH2 0x6C SWAP2 SWAP1 PUSH2 0x15C JUMP JUMPDEST SWAP3 POP POP DUP2 SWAP1 SSTORE POP PUSH1 0x2 PUSH1 0x1 PUSH1 0x0 DUP3 DUP3 SLOAD PUSH2 0x86 SWAP2 SWAP1 PUSH2 0x23D JUMP JUMPDEST SWAP3 POP POP DUP2 SWAP1 SSTORE POP PUSH1 0x2 DUP1 PUSH1 0x0 DUP3 DUP3 SLOAD PUSH2 0x9F SWAP2 SWAP1 PUSH2 0x1E3 JUMP JUMPDEST SWAP3 POP POP DUP2 SWAP1 SSTORE POP PUSH1 0x2 PUSH1 0x3 PUSH1 0x0 DUP3 DUP3 SLOAD PUSH2 0xB9 SWAP2 SWAP1 PUSH2 0x1B2 JUMP JUMPDEST SWAP3 POP POP DUP2 SWAP1 SSTORE POP PUSH1 0x2 PUSH1 0x4 PUSH1 0x0 DUP3 DUP3 SLOAD PUSH2 0xD3 SWAP2 SWAP1 PUSH2 0x27B JUMP JUMPDEST SWAP3 POP POP DUP2 SWAP1 SSTORE POP PUSH1 0x0 SLOAD PUSH1 0x1 SLOAD PUSH1 0x2 SLOAD PUSH1 0x3 SLOAD PUSH1 0x4 SLOAD SWAP5 POP SWAP5 POP SWAP5 POP SWAP5 POP SWAP5 POP SWAP1 SWAP2 SWAP3 SWAP4 SWAP5 JUMP JUMPDEST PUSH2 0x103 DUP2 PUSH2 0x271 JUMP JUMPDEST DUP3 MSTORE POP POP JUMP JUMPDEST PUSH1 0x0 PUSH1 0xA0 DUP3 ADD SWAP1 POP PUSH2 0x11E PUSH1 0x0 DUP4 ADD DUP9 PUSH2 0xFA JUMP JUMPDEST PUSH2 0x12B PUSH1 0x20 DUP4 ADD DUP8 PUSH2 0xFA JUMP JUMPDEST PUSH2 0x138 PUSH1 0x40 DUP4 ADD DUP7 PUSH2 0xFA JUMP JUMPDEST PUSH2 0x145 PUSH1 0x60 DUP4 ADD DUP6 PUSH2 0xFA JUMP JUMPDEST PUSH2 0x152 PUSH1 0x80 DUP4 ADD DUP5 PUSH2 0xFA JUMP JUMPDEST SWAP7 SWAP6 POP POP POP POP POP POP JUMP JUMPDEST PUSH1 0x0 PUSH2 0x167 DUP3 PUSH2 0x271 JUMP JUMPDEST SWAP2 POP PUSH2 0x172 DUP4 PUSH2 0x271 JUMP JUMPDEST SWAP3 POP DUP3 PUSH32 0xFFFFFFFFFFFFFFFFFFFFFFFFFFFFFFFFFFFFFFFFFFFFFFFFFFFFFFFFFFFFFFFF SUB DUP3 GT ISZERO PUSH2 0x1A7 JUMPI PUSH2 0x1A6 PUSH2 0x2AC JUMP JUMPDEST JUMPDEST DUP3 DUP3 ADD SWAP1 POP SWAP3 SWAP2 POP POP JUMP JUMPDEST PUSH1 0x0 PUSH2 0x1BD DUP3 PUSH2 0x271 JUMP JUMPDEST SWAP2 POP PUSH2 0x1C8 DUP4 PUSH2 0x271 JUMP JUMPDEST SWAP3 POP DUP3 PUSH2 0x1D8 JUMPI PUSH2 0x1D7 PUSH2 0x2DB JUMP JUMPDEST JUMPDEST DUP3 DUP3 DIV SWAP1 POP SWAP3 SWAP2 POP POP JUMP JUMPDEST PUSH1 0x0 PUSH2 0x1EE DUP3 PUSH2 0x271 JUMP JUMPDEST SWAP2 POP PUSH2 0x1F9 DUP4 PUSH2 0x271 JUMP JUMPDEST SWAP3 POP DUP2 PUSH32 0xFFFFFFFFFFFFFFFFFFFFFFFFFFFFFFFFFFFFFFFFFFFFFFFFFFFFFFFFFFFFFFFF DIV DUP4 GT DUP3 ISZERO ISZERO AND ISZERO PUSH2 0x232 JUMPI PUSH2 0x231 PUSH2 0x2AC JUMP JUMPDEST JUMPDEST DUP3 DUP3 MUL SWAP1 POP SWAP3 SWAP2 POP POP JUMP JUMPDEST PUSH1 0x0 PUSH2 0x248 DUP3 PUSH2 0x271 JUMP JUMPDEST SWAP2 POP PUSH2 0x253 DUP4 PUSH2 0x271 JUMP JUMPDEST SWAP3 POP DUP3 DUP3 LT ISZERO PUSH2 0x266 JUMPI PUSH2 0x265 PUSH2 0x2AC JUMP JUMPDEST JUMPDEST DUP3 DUP3 SUB SWAP1 POP SWAP3 SWAP2 POP POP JUMP JUMPDEST PUSH1 0x0 DUP2 SWAP1 POP SWAP2 SWAP1 POP JUMP JUMPDEST PUSH1 0x0 PUSH2 0x286 DUP3 PUSH2 0x271 JUMP JUMPDEST SWAP2 POP PUSH2 0x291 DUP4 PUSH2 0x271 JUMP JUMPDEST SWAP3 POP DUP3 PUSH2 0x2A1 JUMPI PUSH2 0x2A0 PUSH2 0x2DB JUMP JUMPDEST JUMPDEST DUP3 DUP3 MOD SWAP1 POP SWAP3 SWAP2 POP POP JUMP JUMPDEST PUSH32 0x4E487B7100000000000000000000000000000000000000000000000000000000 PUSH1 0x0 MSTORE PUSH1 0x11 PUSH1 0x4 MSTORE PUSH1 0x24 PUSH1 0x0 REVERT JUMPDEST PUSH32 0x4E487B7100000000000000000000000000000000000000000000000000000000 PUSH1 0x0 MSTORE PUSH1 0x12 PUSH1 0x4 MSTORE PUSH1 0x24 PUSH1 0x0 REVERT INVALID LOG2 PUSH5 0x6970667358 0x22 SLT KECCAK256 0x4A 0xC0 SWAP5 DUP15 CALLCODE 0xCA 0x4E 0xCC PUSH9 0xA02506137877320EF8 SWAP8 BALANCE SWAP1 SWAP9 NOT SWAP15 0xAA 0xEE 0xB0 CALLDATACOPY PUSH7 0xF270164736F6C PUSH4 0x43000807 STOP CALLER "
				},
				"gasEstimates": {
					"creation": {
						"codeDepositCost": "166400",
						"executionCost": "110738",
						"totalCost": "277138"
					},
					"external": {
						"compoundAssignment()": "infinite"
					}
				},
				"methodIdentifiers": {
					"compoundAssignment()": "e1ce4d3f"
				}
			},
			"storageLayout": {
				"storage": [
					{
						"astId": 4,
						"contract": "Ex2_5.sol:Ex2_5",
						"label": "a",
						"offset": 0,
						"slot": "0",
						"type": "t_uint256"
					},
					{
						"astId": 7,
						"contract": "Ex2_5.sol:Ex2_5",
						"label": "b",
						"offset": 0,
						"slot": "1",
						"type": "t_uint256"
					},
					{
						"astId": 10,
						"contract": "Ex2_5.sol:Ex2_5",
						"label": "c",
						"offset": 0,
						"slot": "2",
						"type": "t_uint256"
					},
					{
						"astId": 13,
						"contract": "Ex2_5.sol:Ex2_5",
						"label": "d",
						"offset": 0,
						"slot": "3",
						"type": "t_uint256"
					},
					{
						"astId": 16,
						"contract": "Ex2_5.sol:Ex2_5",
						"label": "e",
						"offset": 0,
						"slot": "4",
						"type": "t_uint256"
					}
				],
				"types": {
					"t_uint256": {
						"encoding": "inplace",
						"label": "uint256",
						"numberOfBytes": "32"
					}
				}
			},
			"userdoc": {
				"kind": "user",
				"methods": {},
				"version": 1
			}
		}
	}
}