{
	"Ex2_8.sol": {
		"Ex2_8": {
			"abi": [
				{
					"inputs": [],
					"name": "comparison",
					"outputs": [
						{
							"internalType": "bool",
							"name": "",
							"type": "bool"
						},
						{
							"internalType": "bool",
							"name": "",
							"type": "bool"
						},
						{
							"internalType": "bool",
							"name": "",
							"type": "bool"
						},
						{
							"internalType": "bool",
							"name": "",
							"type": "bool"
						},
						{
							"internalType": "bool",
							"name": "",
							"type": "bool"
						},
						{
							"internalType": "bool",
							"name": "",
							"type": "bool"
						}
					],
					"stateMutability": "view",
					"type": "function"
				}
			],
			"devdoc": {
				"kind": "dev",
				"methods": {},
				"version": 1
			},
			"evm": {
				"assembly": "    /* \"Ex2_8.sol\":76:423  contract Ex2_8 {\r... */\n  mstore(0x40, 0x80)\n    /* \"Ex2_8.sol\":115:116  4 */\n  0x04\n    /* \"Ex2_8.sol\":113:114  3 */\n  0x03\n    /* \"Ex2_8.sol\":113:116  3>4 */\n  gt\n    /* \"Ex2_8.sol\":104:116  bool a = 3>4 */\n  0x00\n  dup1\n  0x0100\n  exp\n  dup2\n  sload\n  dup2\n  0xff\n  mul\n  not\n  and\n  swap1\n  dup4\n  iszero\n  iszero\n  mul\n  or\n  swap1\n  sstore\n  pop\n    /* \"Ex2_8.sol\":134:135  4 */\n  0x04\n    /* \"Ex2_8.sol\":132:133  3 */\n  0x03\n    /* \"Ex2_8.sol\":132:135  3<4 */\n  lt\n    /* \"Ex2_8.sol\":123:135  bool b = 3<4 */\n  0x00\n  exp(0x0100, 0x01)\n  dup2\n  sload\n  dup2\n  0xff\n  mul\n  not\n  and\n  swap1\n  dup4\n  iszero\n  iszero\n  mul\n  or\n  swap1\n  sstore\n  pop\n    /* \"Ex2_8.sol\":154:155  2 */\n  0x02\n    /* \"Ex2_8.sol\":151:152  5 */\n  0x05\n    /* \"Ex2_8.sol\":151:155  5>=2 */\n  lt\n  iszero\n    /* \"Ex2_8.sol\":142:155  bool c = 5>=2 */\n  0x00\n  exp(0x0100, 0x02)\n  dup2\n  sload\n  dup2\n  0xff\n  mul\n  not\n  and\n  swap1\n  dup4\n  iszero\n  iszero\n  mul\n  or\n  swap1\n  sstore\n  pop\n    /* \"Ex2_8.sol\":174:175  5 */\n  0x05\n    /* \"Ex2_8.sol\":171:172  5 */\n  dup1\n    /* \"Ex2_8.sol\":171:175  5<=5 */\n  gt\n  iszero\n    /* \"Ex2_8.sol\":162:175  bool d = 5<=5 */\n  0x00\n  exp(0x0100, 0x03)\n  dup2\n  sload\n  dup2\n  0xff\n  mul\n  not\n  and\n  swap1\n  dup4\n  iszero\n  iszero\n  mul\n  or\n  swap1\n  sstore\n  pop\n    /* \"Ex2_8.sol\":194:195  2 */\n  0x02\n    /* \"Ex2_8.sol\":191:192  3 */\n  0x03\n    /* \"Ex2_8.sol\":191:195  3==2 */\n  eq\n    /* \"Ex2_8.sol\":182:195  bool e = 3==2 */\n  0x00\n  exp(0x0100, 0x04)\n  dup2\n  sload\n  dup2\n  0xff\n  mul\n  not\n  and\n  swap1\n  dup4\n  iszero\n  iszero\n  mul\n  or\n  swap1\n  sstore\n  pop\n    /* \"Ex2_8.sol\":214:215  2 */\n  0x02\n    /* \"Ex2_8.sol\":211:212  2 */\n  dup1\n    /* \"Ex2_8.sol\":211:215  2!=2 */\n  eq\n  iszero\n    /* \"Ex2_8.sol\":202:215  bool f = 2!=2 */\n  0x00\n  exp(0x0100, 0x05)\n  dup2\n  sload\n  dup2\n  0xff\n  mul\n  not\n  and\n  swap1\n  dup4\n  iszero\n  iszero\n  mul\n  or\n  swap1\n  sstore\n  pop\n    /* \"Ex2_8.sol\":76:423  contract Ex2_8 {\r... */\n  callvalue\n  dup1\n  iszero\n  tag_1\n  jumpi\n  0x00\n  dup1\n  revert\ntag_1:\n  pop\n  dataSize(sub_0)\n  dup1\n  dataOffset(sub_0)\n  0x00\n  codecopy\n  0x00\n  return\nstop\n\nsub_0: assembly {\n        /* \"Ex2_8.sol\":76:423  contract Ex2_8 {\r... */\n      mstore(0x40, 0x80)\n      callvalue\n      dup1\n      iszero\n      tag_1\n      jumpi\n      0x00\n      dup1\n      revert\n    tag_1:\n      pop\n      jumpi(tag_2, lt(calldatasize, 0x04))\n      shr(0xe0, calldataload(0x00))\n      dup1\n      0xaae103ad\n      eq\n      tag_3\n      jumpi\n    tag_2:\n      0x00\n      dup1\n      revert\n        /* \"Ex2_8.sol\":224:336  function comparison() public view returns(bool,bool,bool,bool,bool,bool){\r... */\n    tag_3:\n      tag_4\n      tag_5\n      jump\t// in\n    tag_4:\n      mload(0x40)\n      tag_6\n      swap7\n      swap6\n      swap5\n      swap4\n      swap3\n      swap2\n      swap1\n      tag_7\n      jump\t// in\n    tag_6:\n      mload(0x40)\n      dup1\n      swap2\n      sub\n      swap1\n      return\n    tag_5:\n        /* \"Ex2_8.sol\":266:270  bool */\n      0x00\n        /* \"Ex2_8.sol\":271:275  bool */\n      dup1\n        /* \"Ex2_8.sol\":276:280  bool */\n      0x00\n        /* \"Ex2_8.sol\":281:285  bool */\n      dup1\n        /* \"Ex2_8.sol\":286:290  bool */\n      0x00\n        /* \"Ex2_8.sol\":291:295  bool */\n      dup1\n        /* \"Ex2_8.sol\":316:317  a */\n      0x00\n      dup1\n      sload\n      swap1\n      0x0100\n      exp\n      swap1\n      div\n      0xff\n      and\n        /* \"Ex2_8.sol\":318:319  b */\n      0x00\n      0x01\n      swap1\n      sload\n      swap1\n      0x0100\n      exp\n      swap1\n      div\n      0xff\n      and\n        /* \"Ex2_8.sol\":320:321  c */\n      0x00\n      0x02\n      swap1\n      sload\n      swap1\n      0x0100\n      exp\n      swap1\n      div\n      0xff\n      and\n        /* \"Ex2_8.sol\":322:323  d */\n      0x00\n      0x03\n      swap1\n      sload\n      swap1\n      0x0100\n      exp\n      swap1\n      div\n      0xff\n      and\n        /* \"Ex2_8.sol\":324:325  e */\n      0x00\n      0x04\n      swap1\n      sload\n      swap1\n      0x0100\n      exp\n      swap1\n      div\n      0xff\n      and\n        /* \"Ex2_8.sol\":326:327  f */\n      0x00\n      0x05\n      swap1\n      sload\n      swap1\n      0x0100\n      exp\n      swap1\n      div\n      0xff\n      and\n        /* \"Ex2_8.sol\":309:328  return(a,b,c,d,e,f) */\n      swap6\n      pop\n      swap6\n      pop\n      swap6\n      pop\n      swap6\n      pop\n      swap6\n      pop\n      swap6\n      pop\n        /* \"Ex2_8.sol\":224:336  function comparison() public view returns(bool,bool,bool,bool,bool,bool){\r... */\n      swap1\n      swap2\n      swap3\n      swap4\n      swap5\n      swap6\n      jump\t// out\n        /* \"#utility.yul\":7:116   */\n    tag_10:\n        /* \"#utility.yul\":88:109   */\n      tag_12\n        /* \"#utility.yul\":103:108   */\n      dup2\n        /* \"#utility.yul\":88:109   */\n      tag_13\n      jump\t// in\n    tag_12:\n        /* \"#utility.yul\":83:86   */\n      dup3\n        /* \"#utility.yul\":76:110   */\n      mstore\n        /* \"#utility.yul\":7:116   */\n      pop\n      pop\n      jump\t// out\n        /* \"#utility.yul\":122:825   */\n    tag_7:\n        /* \"#utility.yul\":319:323   */\n      0x00\n        /* \"#utility.yul\":357:360   */\n      0xc0\n        /* \"#utility.yul\":346:355   */\n      dup3\n        /* \"#utility.yul\":342:361   */\n      add\n        /* \"#utility.yul\":334:361   */\n      swap1\n      pop\n        /* \"#utility.yul\":371:436   */\n      tag_15\n        /* \"#utility.yul\":433:434   */\n      0x00\n        /* \"#utility.yul\":422:431   */\n      dup4\n        /* \"#utility.yul\":418:435   */\n      add\n        /* \"#utility.yul\":409:415   */\n      dup10\n        /* \"#utility.yul\":371:436   */\n      tag_10\n      jump\t// in\n    tag_15:\n        /* \"#utility.yul\":446:512   */\n      tag_16\n        /* \"#utility.yul\":508:510   */\n      0x20\n        /* \"#utility.yul\":497:506   */\n      dup4\n        /* \"#utility.yul\":493:511   */\n      add\n        /* \"#utility.yul\":484:490   */\n      dup9\n        /* \"#utility.yul\":446:512   */\n      tag_10\n      jump\t// in\n    tag_16:\n        /* \"#utility.yul\":522:588   */\n      tag_17\n        /* \"#utility.yul\":584:586   */\n      0x40\n        /* \"#utility.yul\":573:582   */\n      dup4\n        /* \"#utility.yul\":569:587   */\n      add\n        /* \"#utility.yul\":560:566   */\n      dup8\n        /* \"#utility.yul\":522:588   */\n      tag_10\n      jump\t// in\n    tag_17:\n        /* \"#utility.yul\":598:664   */\n      tag_18\n        /* \"#utility.yul\":660:662   */\n      0x60\n        /* \"#utility.yul\":649:658   */\n      dup4\n        /* \"#utility.yul\":645:663   */\n      add\n        /* \"#utility.yul\":636:642   */\n      dup7\n        /* \"#utility.yul\":598:664   */\n      tag_10\n      jump\t// in\n    tag_18:\n        /* \"#utility.yul\":674:741   */\n      tag_19\n        /* \"#utility.yul\":736:739   */\n      0x80\n        /* \"#utility.yul\":725:734   */\n      dup4\n        /* \"#utility.yul\":721:740   */\n      add\n        /* \"#utility.yul\":712:718   */\n      dup6\n        /* \"#utility.yul\":674:741   */\n      tag_10\n      jump\t// in\n    tag_19:\n        /* \"#utility.yul\":751:818   */\n      tag_20\n        /* \"#utility.yul\":813:816   */\n      0xa0\n        /* \"#utility.yul\":802:811   */\n      dup4\n        /* \"#utility.yul\":798:817   */\n      add\n        /* \"#utility.yul\":789:795   */\n      dup5\n        /* \"#utility.yul\":751:818   */\n      tag_10\n      jump\t// in\n    tag_20:\n        /* \"#utility.yul\":122:825   */\n      swap8\n      swap7\n      pop\n      pop\n      pop\n      pop\n      pop\n      pop\n      pop\n      jump\t// out\n        /* \"#utility.yul\":831:921   */\n    tag_13:\n        /* \"#utility.yul\":865:872   */\n      0x00\n        /* \"#utility.yul\":908:913   */\n      dup2\n        /* \"#utility.yul\":901:914   */\n      iszero\n        /* \"#utility.yul\":894:915   */\n      iszero\n        /* \"#utility.yul\":883:915   */\n      swap1\n      pop\n        /* \"#utility.yul\":831:921   */\n      swap2\n      swap1\n      pop\n      jump\t// out\n\n    auxdata: 0xa2646970667358221220c2f77f276bcc1fd7b15ba68545d45bd1f5ad79fbc806a38fd7c7c9e8b3faa16764736f6c63430008070033\n}\n",
				"bytecode": {
					"linkReferences": {},
					"object": "608060405260046003116000806101000a81548160ff0219169083151502179055506004600310600060016101000a81548160ff021916908315150217905550600260051015600060026101000a81548160ff0219169083151502179055506005801115600060036101000a81548160ff0219169083151502179055506002600314600060046101000a81548160ff0219169083151502179055506002801415600060056101000a81548160ff0219169083151502179055503480156100c457600080fd5b50610180806100d46000396000f3fe608060405234801561001057600080fd5b506004361061002b5760003560e01c8063aae103ad14610030575b600080fd5b610038610053565b60405161004a969594939291906100dd565b60405180910390f35b60008060008060008060008054906101000a900460ff16600060019054906101000a900460ff16600060029054906101000a900460ff16600060039054906101000a900460ff16600060049054906101000a900460ff16600060059054906101000a900460ff16955095509550955095509550909192939495565b6100d78161013e565b82525050565b600060c0820190506100f260008301896100ce565b6100ff60208301886100ce565b61010c60408301876100ce565b61011960608301866100ce565b61012660808301856100ce565b61013360a08301846100ce565b979650505050505050565b6000811515905091905056fea2646970667358221220c2f77f276bcc1fd7b15ba68545d45bd1f5ad79fbc806a38fd7c7c9e8b3faa16764736f6c63430008070033",
					"opcodes": "PUSH1 0x80 PUSH1 0x40 MSTORE PUSH1 0x4 PUSH1 0x3 GT PUSH1 0x0 DUP1 PUSH2 0x100 EXP DUP2 SLOAD DUP2 PUSH1 0xFF MUL NOT AND SWAP1 DUP4 ISZERO ISZERO MUL OR SWAP1 SSTORE POP PUSH1 0x4 PUSH1 0x3 LT PUSH1 0x0 PUSH1 0x1 PUSH2 0x100 EXP DUP2 SLOAD DUP2 PUSH1 0xFF MUL NOT AND SWAP1 DUP4 ISZERO ISZERO MUL OR SWAP1 SSTORE POP PUSH1 0x2 PUSH1 0x5 LT ISZERO PUSH1 0x0 PUSH1 0x2 PUSH2 0x100 EXP DUP2 SLOAD DUP2 PUSH1 0xFF MUL NOT AND SWAP1 DUP4 ISZERO ISZERO MUL OR SWAP1 SSTORE POP PUSH1 0x5 DUP1 GT ISZERO PUSH1 0x0 PUSH1 0x3 PUSH2 0x100 EXP DUP2 SLOAD DUP2 PUSH1 0xFF MUL NOT AND SWAP1 DUP4 ISZERO ISZERO MUL OR SWAP1 SSTORE POP PUSH1 0x2 PUSH1 0x3 EQ PUSH1 0x0 PUSH1 0x4 PUSH2 0x100 EXP DUP2 SLOAD DUP2 PUSH1 0xFF MUL NOT AND SWAP1 DUP4 ISZERO ISZERO MUL OR SWAP1 SSTORE POP PUSH1 0x2 DUP1 EQ ISZERO PUSH1 0x0 PUSH1 0x5 PUSH2 0x100 EXP DUP2 SLOAD DUP2 PUSH1 0xFF MUL NOT AND SWAP1 DUP4 ISZERO ISZERO MUL OR SWAP1 SSTORE POP CALLVALUE DUP1 ISZERO PUSH2 0xC4 JUMPI PUSH1 0x0 DUP1 REVERT JUMPDEST POP PUSH2 0x180 DUP1 PUSH2 0xD4 PUSH1 0x0 CODECOPY PUSH1 0x0 RETURN INVALID PUSH1 0x80 PUSH1 0x40 MSTORE CALLVALUE DUP1 ISZERO PUSH2 0x10 JUMPI PUSH1 0x0 DUP1 REVERT JUMPDEST POP PUSH1 0x4 CALLDATASIZE LT PUSH2 0x2B JUMPI PUSH1 0x0 CALLDATALOAD PUSH1 0xE0 SHR DUP1 PUSH4 0xAAE103AD EQ PUSH2 0x30 JUMPI JUMPDEST PUSH1 0x0 DUP1 REVERT JUMPDEST PUSH2 0x38 PUSH2 0x53 JUMP JUMPDEST PUSH1 0x40 MLOAD PUSH2 0x4A SWAP7 SWAP6 SWAP5 SWAP4 SWAP3 SWAP2 SWAP1 PUSH2 0xDD JUMP JUMPDEST PUSH1 0x40 MLOAD DUP1 SWAP2 SUB SWAP1 RETURN JUMPDEST PUSH1 0x0 DUP1 PUSH1 0x0 DUP1 PUSH1 0x0 DUP1 PUSH1 0x0 DUP1 SLOAD SWAP1 PUSH2 0x100 EXP SWAP1 DIV PUSH1 0xFF AND PUSH1 0x0 PUSH1 0x1 SWAP1 SLOAD SWAP1 PUSH2 0x100 EXP SWAP1 DIV PUSH1 0xFF AND PUSH1 0x0 PUSH1 0x2 SWAP1 SLOAD SWAP1 PUSH2 0x100 EXP SWAP1 DIV PUSH1 0xFF AND PUSH1 0x0 PUSH1 0x3 SWAP1 SLOAD SWAP1 PUSH2 0x100 EXP SWAP1 DIV PUSH1 0xFF AND PUSH1 0x0 PUSH1 0x4 SWAP1 SLOAD SWAP1 PUSH2 0x100 EXP SWAP1 DIV PUSH1 0xFF AND PUSH1 0x0 PUSH1 0x5 SWAP1 SLOAD SWAP1 PUSH2 0x100 EXP SWAP1 DIV PUSH1 0xFF AND SWAP6 POP SWAP6 POP SWAP6 POP SWAP6 POP SWAP6 POP SWAP6 POP SWAP1 SWAP2 SWAP3 SWAP4 SWAP5 SWAP6 JUMP JUMPDEST PUSH2 0xD7 DUP2 PUSH2 0x13E JUMP JUMPDEST DUP3 MSTORE POP POP JUMP JUMPDEST PUSH1 0x0 PUSH1 0xC0 DUP3 ADD SWAP1 POP PUSH2 0xF2 PUSH1 0x0 DUP4 ADD DUP10 PUSH2 0xCE JUMP JUMPDEST PUSH2 0xFF PUSH1 0x20 DUP4 ADD DUP9 PUSH2 0xCE JUMP JUMPDEST PUSH2 0x10C PUSH1 0x40 DUP4 ADD DUP8 PUSH2 0xCE JUMP JUMPDEST PUSH2 0x119 PUSH1 0x60 DUP4 ADD DUP7 PUSH2 0xCE JUMP JUMPDEST PUSH2 0x126 PUSH1 0x80 DUP4 ADD DUP6 PUSH2 0xCE JUMP JUMPDEST PUSH2 0x133 PUSH1 0xA0 DUP4 ADD DUP5 PUSH2 0xCE JUMP JUMPDEST SWAP8 SWAP7 POP POP POP POP POP POP POP JUMP JUMPDEST PUSH1 0x0 DUP2 ISZERO ISZERO SWAP1 POP SWAP2 SWAP1 POP JUMP INVALID LOG2 PUSH5 0x6970667358 0x22 SLT KECCAK256 0xC2 0xF7 PUSH32 0x276BCC1FD7B15BA68545D45BD1F5AD79FBC806A38FD7C7C9E8B3FAA16764736F PUSH13 0x63430008070033000000000000 "
				},
				"gasEstimates": {
					"creation": {
						"codeDepositCost": "76800",
						"executionCost": "146020",
						"totalCost": "222820"
					},
					"external": {
						"comparison()": "infinite"
					}
				},
				"methodIdentifiers": {
					"comparison()": "aae103ad"
				}
			},
			"storageLayout": {
				"storage": [
					{
						"astId": 6,
						"contract": "Ex2_8.sol:Ex2_8",
						"label": "a",
						"offset": 0,
						"slot": "0",
						"type": "t_bool"
					},
					{
						"astId": 11,
						"contract": "Ex2_8.sol:Ex2_8",
						"label": "b",
						"offset": 1,
						"slot": "0",
						"type": "t_bool"
					},
					{
						"astId": 16,
						"contract": "Ex2_8.sol:Ex2_8",
						"label": "c",
						"offset": 2,
						"slot": "0",
						"type": "t_bool"
					},
					{
						"astId": 21,
						"contract": "Ex2_8.sol:Ex2_8",
						"label": "d",
						"offset": 3,
						"slot": "0",
						"type": "t_bool"
					},
					{
						"astId": 26,
						"contract": "Ex2_8.sol:Ex2_8",
						"label": "e",
						"offset": 4,
						"slot": "0",
						"type": "t_bool"
					},
					{
						"astId": 31,
						"contract": "Ex2_8.sol:Ex2_8",
						"label": "f",
						"offset": 5,
						"slot": "0",
						"type": "t_bool"
					}
				],
				"types": {
					"t_bool": {
						"encoding": "inplace",
						"label": "bool",
						"numberOfBytes": "1"
					}
				}
			},
			"userdoc": {
				"kind": "user",
				"methods": {},
				"version": 1
			}
		}
	}
}