{
	"Ex2_9.sol": {
		"Ex2_9": {
			"abi": [
				{
					"inputs": [],
					"name": "logical",
					"outputs": [
						{
							"internalType": "bool",
							"name": "",
							"type": "bool"
						},
						{
							"internalType": "bool",
							"name": "",
							"type": "bool"
						},
						{
							"internalType": "bool",
							"name": "",
							"type": "bool"
						},
						{
							"internalType": "bool",
							"name": "",
							"type": "bool"
						},
						{
							"internalType": "bool",
							"name": "",
							"type": "bool"
						},
						{
							"internalType": "bool",
							"name": "",
							"type": "bool"
						},
						{
							"internalType": "bool",
							"name": "",
							"type": "bool"
						}
					],
					"stateMutability": "view",
					"type": "function"
				}
			],
			"devdoc": {
				"kind": "dev",
				"methods": {},
				"version": 1
			},
			"evm": {
				"assembly": "    /* \"Ex2_9.sol\":76:505  contract Ex2_9 {\r... */\n  mstore(0x40, 0x80)\n    /* \"Ex2_9.sol\":113:117  true */\n  0x01\n    /* \"Ex2_9.sol\":113:125  true && true */\n  dup1\n  iszero\n  tag_1\n  jumpi\n  pop\n    /* \"Ex2_9.sol\":121:125  true */\n  0x01\n    /* \"Ex2_9.sol\":113:125  true && true */\ntag_1:\n    /* \"Ex2_9.sol\":104:125  bool a = true && true */\n  0x00\n  dup1\n  0x0100\n  exp\n  dup2\n  sload\n  dup2\n  0xff\n  mul\n  not\n  and\n  swap1\n  dup4\n  iszero\n  iszero\n  mul\n  or\n  swap1\n  sstore\n  pop\n    /* \"Ex2_9.sol\":141:145  true */\n  0x01\n    /* \"Ex2_9.sol\":141:154  true && false */\n  dup1\n  iszero\n  tag_2\n  jumpi\n  pop\n    /* \"Ex2_9.sol\":149:154  false */\n  0x00\n    /* \"Ex2_9.sol\":141:154  true && false */\ntag_2:\n    /* \"Ex2_9.sol\":132:154  bool b = true && false */\n  0x00\n  exp(0x0100, 0x01)\n  dup2\n  sload\n  dup2\n  0xff\n  mul\n  not\n  and\n  swap1\n  dup4\n  iszero\n  iszero\n  mul\n  or\n  swap1\n  sstore\n  pop\n    /* \"Ex2_9.sol\":170:175  false */\n  0x00\n    /* \"Ex2_9.sol\":170:184  false && false */\n  dup1\n  iszero\n  tag_3\n  jumpi\n  pop\n    /* \"Ex2_9.sol\":179:184  false */\n  0x00\n    /* \"Ex2_9.sol\":170:184  false && false */\ntag_3:\n    /* \"Ex2_9.sol\":161:184  bool c = false && false */\n  0x00\n  exp(0x0100, 0x02)\n  dup2\n  sload\n  dup2\n  0xff\n  mul\n  not\n  and\n  swap1\n  dup4\n  iszero\n  iszero\n  mul\n  or\n  swap1\n  sstore\n  pop\n    /* \"Ex2_9.sol\":200:204  true */\n  0x01\n    /* \"Ex2_9.sol\":200:212  true || true */\n  dup1\n  tag_4\n  jumpi\n  pop\n    /* \"Ex2_9.sol\":208:212  true */\n  0x01\n    /* \"Ex2_9.sol\":200:212  true || true */\ntag_4:\n    /* \"Ex2_9.sol\":191:212  bool d = true || true */\n  0x00\n  exp(0x0100, 0x03)\n  dup2\n  sload\n  dup2\n  0xff\n  mul\n  not\n  and\n  swap1\n  dup4\n  iszero\n  iszero\n  mul\n  or\n  swap1\n  sstore\n  pop\n    /* \"Ex2_9.sol\":228:232  true */\n  0x01\n    /* \"Ex2_9.sol\":228:241  true || false */\n  dup1\n  tag_5\n  jumpi\n  pop\n    /* \"Ex2_9.sol\":236:241  false */\n  0x00\n    /* \"Ex2_9.sol\":228:241  true || false */\ntag_5:\n    /* \"Ex2_9.sol\":219:241  bool e = true || false */\n  0x00\n  exp(0x0100, 0x04)\n  dup2\n  sload\n  dup2\n  0xff\n  mul\n  not\n  and\n  swap1\n  dup4\n  iszero\n  iszero\n  mul\n  or\n  swap1\n  sstore\n  pop\n    /* \"Ex2_9.sol\":257:262  false */\n  0x00\n    /* \"Ex2_9.sol\":257:271  false || false */\n  dup1\n  tag_6\n  jumpi\n  pop\n    /* \"Ex2_9.sol\":266:271  false */\n  0x00\n    /* \"Ex2_9.sol\":257:271  false || false */\ntag_6:\n    /* \"Ex2_9.sol\":248:271  bool f = false || false */\n  0x00\n  exp(0x0100, 0x05)\n  dup2\n  sload\n  dup2\n  0xff\n  mul\n  not\n  and\n  swap1\n  dup4\n  iszero\n  iszero\n  mul\n  or\n  swap1\n  sstore\n  pop\n    /* \"Ex2_9.sol\":288:293  false */\n  0x00\n    /* \"Ex2_9.sol\":287:293  !false */\n  iszero\n    /* \"Ex2_9.sol\":278:293  bool g = !false */\n  0x00\n  exp(0x0100, 0x06)\n  dup2\n  sload\n  dup2\n  0xff\n  mul\n  not\n  and\n  swap1\n  dup4\n  iszero\n  iszero\n  mul\n  or\n  swap1\n  sstore\n  pop\n    /* \"Ex2_9.sol\":76:505  contract Ex2_9 {\r... */\n  callvalue\n  dup1\n  iszero\n  tag_7\n  jumpi\n  0x00\n  dup1\n  revert\ntag_7:\n  pop\n  dataSize(sub_0)\n  dup1\n  dataOffset(sub_0)\n  0x00\n  codecopy\n  0x00\n  return\nstop\n\nsub_0: assembly {\n        /* \"Ex2_9.sol\":76:505  contract Ex2_9 {\r... */\n      mstore(0x40, 0x80)\n      callvalue\n      dup1\n      iszero\n      tag_1\n      jumpi\n      0x00\n      dup1\n      revert\n    tag_1:\n      pop\n      jumpi(tag_2, lt(calldatasize, 0x04))\n      shr(0xe0, calldataload(0x00))\n      dup1\n      0x93daa367\n      eq\n      tag_3\n      jumpi\n    tag_2:\n      0x00\n      dup1\n      revert\n        /* \"Ex2_9.sol\":302:418  function logical() public view returns(bool,bool,bool,bool,bool,bool,bool){\r... */\n    tag_3:\n      tag_4\n      tag_5\n      jump\t// in\n    tag_4:\n      mload(0x40)\n      tag_6\n      swap8\n      swap7\n      swap6\n      swap5\n      swap4\n      swap3\n      swap2\n      swap1\n      tag_7\n      jump\t// in\n    tag_6:\n      mload(0x40)\n      dup1\n      swap2\n      sub\n      swap1\n      return\n    tag_5:\n        /* \"Ex2_9.sol\":341:345  bool */\n      0x00\n        /* \"Ex2_9.sol\":346:350  bool */\n      dup1\n        /* \"Ex2_9.sol\":351:355  bool */\n      0x00\n        /* \"Ex2_9.sol\":356:360  bool */\n      dup1\n        /* \"Ex2_9.sol\":361:365  bool */\n      0x00\n        /* \"Ex2_9.sol\":366:370  bool */\n      dup1\n        /* \"Ex2_9.sol\":371:375  bool */\n      0x00\n        /* \"Ex2_9.sol\":396:397  a */\n      dup1\n      0x00\n      swap1\n      sload\n      swap1\n      0x0100\n      exp\n      swap1\n      div\n      0xff\n      and\n        /* \"Ex2_9.sol\":398:399  b */\n      0x00\n      0x01\n      swap1\n      sload\n      swap1\n      0x0100\n      exp\n      swap1\n      div\n      0xff\n      and\n        /* \"Ex2_9.sol\":400:401  c */\n      0x00\n      0x02\n      swap1\n      sload\n      swap1\n      0x0100\n      exp\n      swap1\n      div\n      0xff\n      and\n        /* \"Ex2_9.sol\":402:403  d */\n      0x00\n      0x03\n      swap1\n      sload\n      swap1\n      0x0100\n      exp\n      swap1\n      div\n      0xff\n      and\n        /* \"Ex2_9.sol\":404:405  e */\n      0x00\n      0x04\n      swap1\n      sload\n      swap1\n      0x0100\n      exp\n      swap1\n      div\n      0xff\n      and\n        /* \"Ex2_9.sol\":406:407  f */\n      0x00\n      0x05\n      swap1\n      sload\n      swap1\n      0x0100\n      exp\n      swap1\n      div\n      0xff\n      and\n        /* \"Ex2_9.sol\":408:409  g */\n      0x00\n      0x06\n      swap1\n      sload\n      swap1\n      0x0100\n      exp\n      swap1\n      div\n      0xff\n      and\n        /* \"Ex2_9.sol\":389:410  return(a,b,c,d,e,f,g) */\n      swap7\n      pop\n      swap7\n      pop\n      swap7\n      pop\n      swap7\n      pop\n      swap7\n      pop\n      swap7\n      pop\n      swap7\n      pop\n        /* \"Ex2_9.sol\":302:418  function logical() public view returns(bool,bool,bool,bool,bool,bool,bool){\r... */\n      swap1\n      swap2\n      swap3\n      swap4\n      swap5\n      swap6\n      swap7\n      jump\t// out\n        /* \"#utility.yul\":7:116   */\n    tag_10:\n        /* \"#utility.yul\":88:109   */\n      tag_12\n        /* \"#utility.yul\":103:108   */\n      dup2\n        /* \"#utility.yul\":88:109   */\n      tag_13\n      jump\t// in\n    tag_12:\n        /* \"#utility.yul\":83:86   */\n      dup3\n        /* \"#utility.yul\":76:110   */\n      mstore\n        /* \"#utility.yul\":7:116   */\n      pop\n      pop\n      jump\t// out\n        /* \"#utility.yul\":122:924   */\n    tag_7:\n        /* \"#utility.yul\":341:345   */\n      0x00\n        /* \"#utility.yul\":379:382   */\n      0xe0\n        /* \"#utility.yul\":368:377   */\n      dup3\n        /* \"#utility.yul\":364:383   */\n      add\n        /* \"#utility.yul\":356:383   */\n      swap1\n      pop\n        /* \"#utility.yul\":393:458   */\n      tag_15\n        /* \"#utility.yul\":455:456   */\n      0x00\n        /* \"#utility.yul\":444:453   */\n      dup4\n        /* \"#utility.yul\":440:457   */\n      add\n        /* \"#utility.yul\":431:437   */\n      dup11\n        /* \"#utility.yul\":393:458   */\n      tag_10\n      jump\t// in\n    tag_15:\n        /* \"#utility.yul\":468:534   */\n      tag_16\n        /* \"#utility.yul\":530:532   */\n      0x20\n        /* \"#utility.yul\":519:528   */\n      dup4\n        /* \"#utility.yul\":515:533   */\n      add\n        /* \"#utility.yul\":506:512   */\n      dup10\n        /* \"#utility.yul\":468:534   */\n      tag_10\n      jump\t// in\n    tag_16:\n        /* \"#utility.yul\":544:610   */\n      tag_17\n        /* \"#utility.yul\":606:608   */\n      0x40\n        /* \"#utility.yul\":595:604   */\n      dup4\n        /* \"#utility.yul\":591:609   */\n      add\n        /* \"#utility.yul\":582:588   */\n      dup9\n        /* \"#utility.yul\":544:610   */\n      tag_10\n      jump\t// in\n    tag_17:\n        /* \"#utility.yul\":620:686   */\n      tag_18\n        /* \"#utility.yul\":682:684   */\n      0x60\n        /* \"#utility.yul\":671:680   */\n      dup4\n        /* \"#utility.yul\":667:685   */\n      add\n        /* \"#utility.yul\":658:664   */\n      dup8\n        /* \"#utility.yul\":620:686   */\n      tag_10\n      jump\t// in\n    tag_18:\n        /* \"#utility.yul\":696:763   */\n      tag_19\n        /* \"#utility.yul\":758:761   */\n      0x80\n        /* \"#utility.yul\":747:756   */\n      dup4\n        /* \"#utility.yul\":743:762   */\n      add\n        /* \"#utility.yul\":734:740   */\n      dup7\n        /* \"#utility.yul\":696:763   */\n      tag_10\n      jump\t// in\n    tag_19:\n        /* \"#utility.yul\":773:840   */\n      tag_20\n        /* \"#utility.yul\":835:838   */\n      0xa0\n        /* \"#utility.yul\":824:833   */\n      dup4\n        /* \"#utility.yul\":820:839   */\n      add\n        /* \"#utility.yul\":811:817   */\n      dup6\n        /* \"#utility.yul\":773:840   */\n      tag_10\n      jump\t// in\n    tag_20:\n        /* \"#utility.yul\":850:917   */\n      tag_21\n        /* \"#utility.yul\":912:915   */\n      0xc0\n        /* \"#utility.yul\":901:910   */\n      dup4\n        /* \"#utility.yul\":897:916   */\n      add\n        /* \"#utility.yul\":888:894   */\n      dup5\n        /* \"#utility.yul\":850:917   */\n      tag_10\n      jump\t// in\n    tag_21:\n        /* \"#utility.yul\":122:924   */\n      swap9\n      swap8\n      pop\n      pop\n      pop\n      pop\n      pop\n      pop\n      pop\n      pop\n      jump\t// out\n        /* \"#utility.yul\":930:1020   */\n    tag_13:\n        /* \"#utility.yul\":964:971   */\n      0x00\n        /* \"#utility.yul\":1007:1012   */\n      dup2\n        /* \"#utility.yul\":1000:1013   */\n      iszero\n        /* \"#utility.yul\":993:1014   */\n      iszero\n        /* \"#utility.yul\":982:1014   */\n      swap1\n      pop\n        /* \"#utility.yul\":930:1020   */\n      swap2\n      swap1\n      pop\n      jump\t// out\n\n    auxdata: 0xa2646970667358221220db1933ec52082cb0b395acf3aece0818e139aaab944f5cac6e0306793385719f64736f6c63430008070033\n}\n",
				"bytecode": {
					"linkReferences": {},
					"object": "608060405260018015610010575060015b6000806101000a81548160ff02191690831515021790555060018015610034575060005b600060016101000a81548160ff02191690831515021790555060008015610059575060005b600060026101000a81548160ff02191690831515021790555060018061007d575060015b600060036101000a81548160ff0219169083151502179055506001806100a1575060005b600060046101000a81548160ff0219169083151502179055506000806100c5575060005b600060056101000a81548160ff021916908315150217905550600015600060066101000a81548160ff02191690831515021790555034801561010657600080fd5b506101a5806101166000396000f3fe608060405234801561001057600080fd5b506004361061002b5760003560e01c806393daa36714610030575b600080fd5b610038610054565b60405161004b97969594939291906100f4565b60405180910390f35b60008060008060008060008060009054906101000a900460ff16600060019054906101000a900460ff16600060029054906101000a900460ff16600060039054906101000a900460ff16600060049054906101000a900460ff16600060059054906101000a900460ff16600060069054906101000a900460ff16965096509650965096509650965090919293949596565b6100ee81610163565b82525050565b600060e082019050610109600083018a6100e5565b61011660208301896100e5565b61012360408301886100e5565b61013060608301876100e5565b61013d60808301866100e5565b61014a60a08301856100e5565b61015760c08301846100e5565b98975050505050505050565b6000811515905091905056fea2646970667358221220db1933ec52082cb0b395acf3aece0818e139aaab944f5cac6e0306793385719f64736f6c63430008070033",
					"opcodes": "PUSH1 0x80 PUSH1 0x40 MSTORE PUSH1 0x1 DUP1 ISZERO PUSH2 0x10 JUMPI POP PUSH1 0x1 JUMPDEST PUSH1 0x0 DUP1 PUSH2 0x100 EXP DUP2 SLOAD DUP2 PUSH1 0xFF MUL NOT AND SWAP1 DUP4 ISZERO ISZERO MUL OR SWAP1 SSTORE POP PUSH1 0x1 DUP1 ISZERO PUSH2 0x34 JUMPI POP PUSH1 0x0 JUMPDEST PUSH1 0x0 PUSH1 0x1 PUSH2 0x100 EXP DUP2 SLOAD DUP2 PUSH1 0xFF MUL NOT AND SWAP1 DUP4 ISZERO ISZERO MUL OR SWAP1 SSTORE POP PUSH1 0x0 DUP1 ISZERO PUSH2 0x59 JUMPI POP PUSH1 0x0 JUMPDEST PUSH1 0x0 PUSH1 0x2 PUSH2 0x100 EXP DUP2 SLOAD DUP2 PUSH1 0xFF MUL NOT AND SWAP1 DUP4 ISZERO ISZERO MUL OR SWAP1 SSTORE POP PUSH1 0x1 DUP1 PUSH2 0x7D JUMPI POP PUSH1 0x1 JUMPDEST PUSH1 0x0 PUSH1 0x3 PUSH2 0x100 EXP DUP2 SLOAD DUP2 PUSH1 0xFF MUL NOT AND SWAP1 DUP4 ISZERO ISZERO MUL OR SWAP1 SSTORE POP PUSH1 0x1 DUP1 PUSH2 0xA1 JUMPI POP PUSH1 0x0 JUMPDEST PUSH1 0x0 PUSH1 0x4 PUSH2 0x100 EXP DUP2 SLOAD DUP2 PUSH1 0xFF MUL NOT AND SWAP1 DUP4 ISZERO ISZERO MUL OR SWAP1 SSTORE POP PUSH1 0x0 DUP1 PUSH2 0xC5 JUMPI POP PUSH1 0x0 JUMPDEST PUSH1 0x0 PUSH1 0x5 PUSH2 0x100 EXP DUP2 SLOAD DUP2 PUSH1 0xFF MUL NOT AND SWAP1 DUP4 ISZERO ISZERO MUL OR SWAP1 SSTORE POP PUSH1 0x0 ISZERO PUSH1 0x0 PUSH1 0x6 PUSH2 0x100 EXP DUP2 SLOAD DUP2 PUSH1 0xFF MUL NOT AND SWAP1 DUP4 ISZERO ISZERO MUL OR SWAP1 SSTORE POP CALLVALUE DUP1 ISZERO PUSH2 0x106 JUMPI PUSH1 0x0 DUP1 REVERT JUMPDEST POP PUSH2 0x1A5 DUP1 PUSH2 0x116 PUSH1 0x0 CODECOPY PUSH1 0x0 RETURN INVALID PUSH1 0x80 PUSH1 0x40 MSTORE CALLVALUE DUP1 ISZERO PUSH2 0x10 JUMPI PUSH1 0x0 DUP1 REVERT JUMPDEST POP PUSH1 0x4 CALLDATASIZE LT PUSH2 0x2B JUMPI PUSH1 0x0 CALLDATALOAD PUSH1 0xE0 SHR DUP1 PUSH4 0x93DAA367 EQ PUSH2 0x30 JUMPI JUMPDEST PUSH1 0x0 DUP1 REVERT JUMPDEST PUSH2 0x38 PUSH2 0x54 JUMP JUMPDEST PUSH1 0x40 MLOAD PUSH2 0x4B SWAP8 SWAP7 SWAP6 SWAP5 SWAP4 SWAP3 SWAP2 SWAP1 PUSH2 0xF4 JUMP JUMPDEST PUSH1 0x40 MLOAD DUP1 SWAP2 SUB SWAP1 RETURN JUMPDEST PUSH1 0x0 DUP1 PUSH1 0x0 DUP1 PUSH1 0x0 DUP1 PUSH1 0x0 DUP1 PUSH1 0x0 SWAP1 SLOAD SWAP1 PUSH2 0x100 EXP SWAP1 DIV PUSH1 0xFF AND PUSH1 0x0 PUSH1 0x1 SWAP1 SLOAD SWAP1 PUSH2 0x100 EXP SWAP1 DIV PUSH1 0xFF AND PUSH1 0x0 PUSH1 0x2 SWAP1 SLOAD SWAP1 PUSH2 0x100 EXP SWAP1 DIV PUSH1 0xFF AND PUSH1 0x0 PUSH1 0x3 SWAP1 SLOAD SWAP1 PUSH2 0x100 EXP SWAP1 DIV PUSH1 0xFF AND PUSH1 0x0 PUSH1 0x4 SWAP1 SLOAD SWAP1 PUSH2 0x100 EXP SWAP1 DIV PUSH1 0xFF AND PUSH1 0x0 PUSH1 0x5 SWAP1 SLOAD SWAP1 PUSH2 0x100 EXP SWAP1 DIV PUSH1 0xFF AND PUSH1 0x0 PUSH1 0x6 SWAP1 SLOAD SWAP1 PUSH2 0x100 EXP SWAP1 DIV PUSH1 0xFF AND SWAP7 POP SWAP7 POP SWAP7 POP SWAP7 POP SWAP7 POP SWAP7 POP SWAP7 POP SWAP1 SWAP2 SWAP3 SWAP4 SWAP5 SWAP6 SWAP7 JUMP JUMPDEST PUSH2 0xEE DUP2 PUSH2 0x163 JUMP JUMPDEST DUP3 MSTORE POP POP JUMP JUMPDEST PUSH1 0x0 PUSH1 0xE0 DUP3 ADD SWAP1 POP PUSH2 0x109 PUSH1 0x0 DUP4 ADD DUP11 PUSH2 0xE5 JUMP JUMPDEST PUSH2 0x116 PUSH1 0x20 DUP4 ADD DUP10 PUSH2 0xE5 JUMP JUMPDEST PUSH2 0x123 PUSH1 0x40 DUP4 ADD DUP9 PUSH2 0xE5 JUMP JUMPDEST PUSH2 0x130 PUSH1 0x60 DUP4 ADD DUP8 PUSH2 0xE5 JUMP JUMPDEST PUSH2 0x13D PUSH1 0x80 DUP4 ADD DUP7 PUSH2 0xE5 JUMP JUMPDEST PUSH2 0x14A PUSH1 0xA0 DUP4 ADD DUP6 PUSH2 0xE5 JUMP JUMPDEST PUSH2 0x157 PUSH1 0xC0 DUP4 ADD DUP5 PUSH2 0xE5 JUMP JUMPDEST SWAP9 SWAP8 POP POP POP POP POP POP POP POP JUMP JUMPDEST PUSH1 0x0 DUP2 ISZERO ISZERO SWAP1 POP SWAP2 SWAP1 POP JUMP INVALID LOG2 PUSH5 0x6970667358 0x22 SLT KECCAK256 0xDB NOT CALLER 0xEC MSTORE ADDMOD 0x2C 0xB0 0xB3 SWAP6 0xAC RETURN 0xAE 0xCE ADDMOD XOR 0xE1 CODECOPY 0xAA 0xAB SWAP5 0x4F 0x5C 0xAC PUSH15 0x306793385719F64736F6C63430008 SMOD STOP CALLER "
				},
				"gasEstimates": {
					"creation": {
						"codeDepositCost": "84200",
						"executionCost": "170433",
						"totalCost": "254633"
					},
					"external": {
						"logical()": "infinite"
					}
				},
				"methodIdentifiers": {
					"logical()": "93daa367"
				}
			},
			"storageLayout": {
				"storage": [
					{
						"astId": 6,
						"contract": "Ex2_9.sol:Ex2_9",
						"label": "a",
						"offset": 0,
						"slot": "0",
						"type": "t_bool"
					},
					{
						"astId": 11,
						"contract": "Ex2_9.sol:Ex2_9",
						"label": "b",
						"offset": 1,
						"slot": "0",
						"type": "t_bool"
					},
					{
						"astId": 16,
						"contract": "Ex2_9.sol:Ex2_9",
						"label": "c",
						"offset": 2,
						"slot": "0",
						"type": "t_bool"
					},
					{
						"astId": 21,
						"contract": "Ex2_9.sol:Ex2_9",
						"label": "d",
						"offset": 3,
						"slot": "0",
						"type": "t_bool"
					},
					{
						"astId": 26,
						"contract": "Ex2_9.sol:Ex2_9",
						"label": "e",
						"offset": 4,
						"slot": "0",
						"type": "t_bool"
					},
					{
						"astId": 31,
						"contract": "Ex2_9.sol:Ex2_9",
						"label": "f",
						"offset": 5,
						"slot": "0",
						"type": "t_bool"
					},
					{
						"astId": 35,
						"contract": "Ex2_9.sol:Ex2_9",
						"label": "g",
						"offset": 6,
						"slot": "0",
						"type": "t_bool"
					}
				],
				"types": {
					"t_bool": {
						"encoding": "inplace",
						"label": "bool",
						"numberOfBytes": "1"
					}
				}
			},
			"userdoc": {
				"kind": "user",
				"methods": {},
				"version": 1
			}
		}
	}
}