{
	"ch3/Ex3_19.sol": {
		"Ex3_19": {
			"abi": [
				{
					"inputs": [],
					"name": "funExt",
					"outputs": [
						{
							"internalType": "uint256",
							"name": "",
							"type": "uint256"
						}
					],
					"stateMutability": "pure",
					"type": "function"
				},
				{
					"inputs": [],
					"name": "outputPri",
					"outputs": [
						{
							"internalType": "uint256",
							"name": "",
							"type": "uint256"
						}
					],
					"stateMutability": "pure",
					"type": "function"
				}
			],
			"devdoc": {
				"kind": "dev",
				"methods": {},
				"version": 1
			},
			"evm": {
				"assembly": "    /* \"ch3/Ex3_19.sol\":75:441  contract Ex3_19{... */\n  mstore(0x40, 0x80)\n  callvalue\n  dup1\n  iszero\n  tag_1\n  jumpi\n  0x00\n  dup1\n  revert\ntag_1:\n  pop\n  dataSize(sub_0)\n  dup1\n  dataOffset(sub_0)\n  0x00\n  codecopy\n  0x00\n  return\nstop\n\nsub_0: assembly {\n        /* \"ch3/Ex3_19.sol\":75:441  contract Ex3_19{... */\n      mstore(0x40, 0x80)\n      callvalue\n      dup1\n      iszero\n      tag_1\n      jumpi\n      0x00\n      dup1\n      revert\n    tag_1:\n      pop\n      jumpi(tag_2, lt(calldatasize, 0x04))\n      shr(0xe0, calldataload(0x00))\n      dup1\n      0xbfc3ef44\n      eq\n      tag_3\n      jumpi\n      dup1\n      0xf51e1727\n      eq\n      tag_4\n      jumpi\n    tag_2:\n      0x00\n      dup1\n      revert\n        /* \"ch3/Ex3_19.sol\":99:171  function funExt() external pure returns(uint){... */\n    tag_3:\n      tag_5\n      tag_6\n      jump\t// in\n    tag_5:\n      mload(0x40)\n      tag_7\n      swap2\n      swap1\n      tag_8\n      jump\t// in\n    tag_7:\n      mload(0x40)\n      dup1\n      swap2\n      sub\n      swap1\n      return\n        /* \"ch3/Ex3_19.sol\":358:438  function outputPri() public pure returns(uint){... */\n    tag_4:\n      tag_9\n      tag_10\n      jump\t// in\n    tag_9:\n      mload(0x40)\n      tag_11\n      swap2\n      swap1\n      tag_8\n      jump\t// in\n    tag_11:\n      mload(0x40)\n      dup1\n      swap2\n      sub\n      swap1\n      return\n        /* \"ch3/Ex3_19.sol\":99:171  function funExt() external pure returns(uint){... */\n    tag_6:\n        /* \"ch3/Ex3_19.sol\":139:143  uint */\n      0x00\n        /* \"ch3/Ex3_19.sol\":162:163  2 */\n      0x02\n        /* \"ch3/Ex3_19.sol\":155:163  return 2 */\n      swap1\n      pop\n        /* \"ch3/Ex3_19.sol\":99:171  function funExt() external pure returns(uint){... */\n      swap1\n      jump\t// out\n        /* \"ch3/Ex3_19.sol\":358:438  function outputPri() public pure returns(uint){... */\n    tag_10:\n        /* \"ch3/Ex3_19.sol\":399:403  uint */\n      0x00\n        /* \"ch3/Ex3_19.sol\":422:430  funPri() */\n      tag_14\n        /* \"ch3/Ex3_19.sol\":422:428  funPri */\n      tag_15\n        /* \"ch3/Ex3_19.sol\":422:430  funPri() */\n      jump\t// in\n    tag_14:\n        /* \"ch3/Ex3_19.sol\":415:430  return funPri() */\n      swap1\n      pop\n        /* \"ch3/Ex3_19.sol\":358:438  function outputPri() public pure returns(uint){... */\n      swap1\n      jump\t// out\n        /* \"ch3/Ex3_19.sol\":177:248  function funPri() private pure returns(uint){... */\n    tag_15:\n        /* \"ch3/Ex3_19.sol\":216:220  uint */\n      0x00\n        /* \"ch3/Ex3_19.sol\":239:240  3 */\n      0x03\n        /* \"ch3/Ex3_19.sol\":232:240  return 3 */\n      swap1\n      pop\n        /* \"ch3/Ex3_19.sol\":177:248  function funPri() private pure returns(uint){... */\n      swap1\n      jump\t// out\n        /* \"#utility.yul\":7:84   */\n    tag_17:\n        /* \"#utility.yul\":44:51   */\n      0x00\n        /* \"#utility.yul\":73:78   */\n      dup2\n        /* \"#utility.yul\":62:78   */\n      swap1\n      pop\n        /* \"#utility.yul\":7:84   */\n      swap2\n      swap1\n      pop\n      jump\t// out\n        /* \"#utility.yul\":90:208   */\n    tag_18:\n        /* \"#utility.yul\":177:201   */\n      tag_22\n        /* \"#utility.yul\":195:200   */\n      dup2\n        /* \"#utility.yul\":177:201   */\n      tag_17\n      jump\t// in\n    tag_22:\n        /* \"#utility.yul\":172:175   */\n      dup3\n        /* \"#utility.yul\":165:202   */\n      mstore\n        /* \"#utility.yul\":90:208   */\n      pop\n      pop\n      jump\t// out\n        /* \"#utility.yul\":214:436   */\n    tag_8:\n        /* \"#utility.yul\":307:311   */\n      0x00\n        /* \"#utility.yul\":345:347   */\n      0x20\n        /* \"#utility.yul\":334:343   */\n      dup3\n        /* \"#utility.yul\":330:348   */\n      add\n        /* \"#utility.yul\":322:348   */\n      swap1\n      pop\n        /* \"#utility.yul\":358:429   */\n      tag_24\n        /* \"#utility.yul\":426:427   */\n      0x00\n        /* \"#utility.yul\":415:424   */\n      dup4\n        /* \"#utility.yul\":411:428   */\n      add\n        /* \"#utility.yul\":402:408   */\n      dup5\n        /* \"#utility.yul\":358:429   */\n      tag_18\n      jump\t// in\n    tag_24:\n        /* \"#utility.yul\":214:436   */\n      swap3\n      swap2\n      pop\n      pop\n      jump\t// out\n\n    auxdata: 0xa2646970667358221220ebd7f925dfd1d472e7f0fcf3be07a58fa5df9ce16a4794b981344667b3665aa364736f6c63430008120033\n}\n",
				"bytecode": {
					"linkReferences": {},
					"object": "608060405234801561001057600080fd5b5060f08061001f6000396000f3fe6080604052348015600f57600080fd5b506004361060325760003560e01c8063bfc3ef44146037578063f51e1727146051575b600080fd5b603d606b565b6040516048919060a1565b60405180910390f35b60576074565b6040516062919060a1565b60405180910390f35b60006002905090565b6000607c6081565b905090565b60006003905090565b6000819050919050565b609b81608a565b82525050565b600060208201905060b460008301846094565b9291505056fea2646970667358221220ebd7f925dfd1d472e7f0fcf3be07a58fa5df9ce16a4794b981344667b3665aa364736f6c63430008120033",
					"opcodes": "PUSH1 0x80 PUSH1 0x40 MSTORE CALLVALUE DUP1 ISZERO PUSH2 0x10 JUMPI PUSH1 0x0 DUP1 REVERT JUMPDEST POP PUSH1 0xF0 DUP1 PUSH2 0x1F PUSH1 0x0 CODECOPY PUSH1 0x0 RETURN INVALID PUSH1 0x80 PUSH1 0x40 MSTORE CALLVALUE DUP1 ISZERO PUSH1 0xF JUMPI PUSH1 0x0 DUP1 REVERT JUMPDEST POP PUSH1 0x4 CALLDATASIZE LT PUSH1 0x32 JUMPI PUSH1 0x0 CALLDATALOAD PUSH1 0xE0 SHR DUP1 PUSH4 0xBFC3EF44 EQ PUSH1 0x37 JUMPI DUP1 PUSH4 0xF51E1727 EQ PUSH1 0x51 JUMPI JUMPDEST PUSH1 0x0 DUP1 REVERT JUMPDEST PUSH1 0x3D PUSH1 0x6B JUMP JUMPDEST PUSH1 0x40 MLOAD PUSH1 0x48 SWAP2 SWAP1 PUSH1 0xA1 JUMP JUMPDEST PUSH1 0x40 MLOAD DUP1 SWAP2 SUB SWAP1 RETURN JUMPDEST PUSH1 0x57 PUSH1 0x74 JUMP JUMPDEST PUSH1 0x40 MLOAD PUSH1 0x62 SWAP2 SWAP1 PUSH1 0xA1 JUMP JUMPDEST PUSH1 0x40 MLOAD DUP1 SWAP2 SUB SWAP1 RETURN JUMPDEST PUSH1 0x0 PUSH1 0x2 SWAP1 POP SWAP1 JUMP JUMPDEST PUSH1 0x0 PUSH1 0x7C PUSH1 0x81 JUMP JUMPDEST SWAP1 POP SWAP1 JUMP JUMPDEST PUSH1 0x0 PUSH1 0x3 SWAP1 POP SWAP1 JUMP JUMPDEST PUSH1 0x0 DUP2 SWAP1 POP SWAP2 SWAP1 POP JUMP JUMPDEST PUSH1 0x9B DUP2 PUSH1 0x8A JUMP JUMPDEST DUP3 MSTORE POP POP JUMP JUMPDEST PUSH1 0x0 PUSH1 0x20 DUP3 ADD SWAP1 POP PUSH1 0xB4 PUSH1 0x0 DUP4 ADD DUP5 PUSH1 0x94 JUMP JUMPDEST SWAP3 SWAP2 POP POP JUMP INVALID LOG2 PUSH5 0x6970667358 0x22 SLT KECCAK256 0xEB 0xD7 0xF9 0x25 0xDF 0xD1 0xD4 PUSH19 0xE7F0FCF3BE07A58FA5DF9CE16A4794B9813446 PUSH8 0xB3665AA364736F6C PUSH4 0x43000812 STOP CALLER "
				},
				"gasEstimates": {
					"creation": {
						"codeDepositCost": "48000",
						"executionCost": "99",
						"totalCost": "48099"
					},
					"external": {
						"funExt()": "315",
						"outputPri()": "372"
					},
					"internal": {
						"funPri()": "23"
					}
				},
				"methodIdentifiers": {
					"funExt()": "bfc3ef44",
					"outputPri()": "f51e1727"
				}
			},
			"storageLayout": {
				"storage": [],
				"types": null
			},
			"userdoc": {
				"kind": "user",
				"methods": {},
				"version": 1
			}
		}
	}
}